:03000000020948AA
:0C094800787FE4F6D8FD75810702098F66
:1004A8004D656E752020202020202020202020202F
:1004B80000313A526573657420413A46696E676542
:1004C8007200323A416C74657220423A47505320A8
:1004D80020200020202020433A52654C6F636B2077
:1004E8002020200046696E67657220202020202089
:1004F800202020200020202020313A5363616E20E4
:1005080020202020200020202020323A496E7075BB
:100518007420202020200020202020433A43616EB0
:1005280063656C2020202000475053202020202085
:10053800202020202020202000202020313A526531
:1005480073657447505320202000202020323A53EE
:10055800657443757272656E742000202020433ADA
:1005680043616E63656C202020202000202020201D
:100578003030303030303030202020200020202013
:1005880020313131313131313120202020002020FB
:10059800202057656C636F6D653A2020202000206D
:1005A80020202045696E737465696E202020200024
:1005B80020526573657420205375636365737320D7
:1005C80000202032203620322020362032203620CB
:1005D8002000204368616E67652053756363657307
:1005E800732000202020202030303030413120205E
:1005F80020202000202020202030303030413220A0
:10060800202020200020202020203030303042318F
:100618002020202020002020202020303030304290
:100628003220202020200050617373776F7264207D
:100638002057726F6E67210049202020202020203B
:10064800202020202020203A20202D202D202D2061
:10065800202D202D202D20202020202045696E735C
:100668007465696E202020202D2D2D2D2D2D2D2DEA
:100678002D2D2D2D2D2D2D2D004920202020202001
:1006880020202020202020203A20202D202D202D21
:1006980020202D202D202D20202020202045696E6F
:1006A800737465696E202020202D2D2D2D2D2D2D64
:1006B8002D2D2D2D2D2D2D2D2D00432020202020BA
:1006C8002020202020202020203A20202D202D20EE
:1006D8002D20202D202D202D202020202020456970
:1006E8006E737465696E202020202D2D2D2D2D2DE3
:1006F8002D2D2D2D2D2D2D2D2D2D00FEFDFBF73013
:10070800003236323632363236002D2D2D2D2D2D33
:0107180000E0
:0C0E1A0081070087002D2D2D2D2D2D00AF
:0B0E3F00EF1FAC0670011E4C70F62285
:060C6C00C2947FC87E0067
:070C7200782DEEF208EFF20D
:100C7900E408F208F2782DE2FE08E2FFC37830E2D8
:100C89009F18E29E5022E4FBFA7F017E00120E3F7C
:100C99000BBB00010AEB640F4A70EE7830E22401C5
:080CA900F218E23400F280CDE4
:010CB1002220
:100D7300D281C2807D30E4FF120B117D01E4FF12AA
:100D83000B117F647E00120E3F7D06E4FF120B11F0
:070D93007D0CE4FF020B11CF
:060DDD007808E4F208F2C0
:100DE3007D30E4FF120B117D01E4FF120B117FB480
:050DF3007E00020E3F2E
:0A0BC5007868EBF208EAF208E9F2A2
:100BCF00120DE37D80E4FF120B11E4786CF2E478F0
:100BDF006BF2786BE2FFC3941050237868E2FB0846
:100BEF00E2FA08E2F9786CE275F010A42FF582E4CE
:100BFF0035F0F583120B0B786BE204F280D4786C2E
:090C0F00E204F2E2C3940440C5C2
:010C180022B9
:040CB2007BFF7F90B5
:0A0CB6007824EBF208EAF208E9F2F4
:100CC000AD07E4FF120B11E47827F27827E2FFC3A7
:100CD000941050197824E2FB08E2FA08E2F98F82B6
:0D0CE000758300120B0B7827E204F280DE12
:010CED0022E4
:060B0B00120828FD7F0125
:020B1100AB0730
:100B13007F327E00120E3FAF05D291C293D292E490
:100B2300FED293C2930EEEB405F7C292D293C29350
:100B3300EB6004D2928002C292D293C293C292D249
:100B430093C293E4FDE4FEEF25E0FF9292D293C2B9
:100B5300930EEEB404F1C292E4FED293C2930EEE6E
:080B6300B404F70DEDB402DD4E
:010B6B002267
:0609D4007BFE7A0079179A
:0A09DA007824EBF208EAF208E9F2D3
:1009E400087C007DFE7BFF7A0679817E007F4112C0
:1009F40007E9120DE37824E2FB08E2FA08E2F912AF
:100A0400080F7839F2900001120828783BF2900020
:100A140002120828783DF29000031208287840F268
:100A24009000041208287842F290000512082878F1
:0B0A340044F27BFE7A007927020BC51C
:0A0AA6007824EBF208EAF208E9F206
:100AB000087C007DFE7BFF7A0679C27E007F4112B2
:100AC00007E9120DE37824E2FB08E2FA08E2F912E2
:100AD000080F7839F2900001120828783BF2900054
:100AE00002120828783DF29000031208287840F29C
:100AF0009000041208287842F29000051208287825
:0B0B000044F27BFE7A007927020BC54F
:100D1D00120DE37BFF7A0479A87F80120CB67A045A
:100D2D0079B9120CB27BFF7A0479CA7F88120CB69E
:0B0D3D007BFF7A0479DB7F98020CB684
:100D4800120DE37BFF7A0479EC7F80120CB67A04EB
:100D580079FD120CB27BFF7A05790E7F88120CB6EA
:0B0D68007BFF7A05791F7F98020CB614
:100CEE00120DE37BFF7A0579307F80120CB67BFF05
:100CFE007A0579417F90120CB67BFF7A0579527F87
:0F0D0E0088120CB67BFF7A0579637F98020CB6CA
:060E6700120C6CD2942273
:100DF800120C6CD2947F787E00120C72120C6CD29A
:020E0800942232
:100B6C0075A0F0E5A054F064F060487F0A7E001296
:100B7C000C72E5A054F064F06039E5A064F0F9E47F
:100B8C00FF8016EFC394045018E5A054F064F06095
:100B9C0006E5A0F4FD800A0FEF90070393F5A08003
:100BAC00E2E5A054F0FFBFF0F8120E67E94DFF78B4
:080BBC0007F222E47807F2FFC2
:010BC400220E
:10089D00EF12087708D51108F112090D140929185E
:1008AD0008DC2108F82209142409302808E341083E
:1008BD00FF42091B4409374808EA810906820922CB
:1008CD0084093E880000094378247431F2806778EA
:1008DD00247432F2806078247433F2805978247451
:1008ED0041F2805278247434F2804B78247435F2BE
:1008FD00804478247436F2803D78247442F2803638
:10090D0078247437F2802F78247438F28028782474
:10091D007439F2802178247443F2801A7824742A71
:10092D00F2801378247430F2800C78247423F280D2
:0A093D000578247444F27824E2FFE8
:01094700228D
:050E5500120E5AD296B6
:050E5A00000000002271
:0C0E2700D297D296120E5AC297020E5AB1
:0C0E3300C297D296120E5AD297020E5AA5
:080E0A00120E277FA0120DBE9D
:080E1200C297120E55C2962290
:080E5F00D297120E55C2962233
:100DBE007E08AD07C296120E5AED30E704D2978028
:0E0DCE0002C297D296EF25E0FDFFDEE6C29648
:010DDC0022F4
:100D9A00E4FFFE7D08D297C296120E55EF309705F2
:100DAA004401FF800354FEFFED146005EF25E0FEC9
:030DBA00FFDDE476
:010DBD002213
:0D0A3F007BFE7A00790E78287406F27D01A6
:040A4C007827EDF228
:100A5000782AEBF208EAF208E9F2E47829F2782839
:100A6000E2FF08E2C39F503D120E0AE2FF7827E240
:100A70002FFF120DBE120E12782AE2FB08E2FA08CE
:100A8000E2F97829E2F582758300120828FF120D39
:100A9000BE120E12120E337F147E00120C727829D1
:050AA000E204F280B940
:010AA500222E
:040C19007827EDF259
:100C1D007829EBF208EAF208E9F2E4FC7828E2FF21
:100C2D00ECC39F5039120E0A18E22CFF120DBE12A2
:100C3D000E12120E277FA1120DBE120E12120D9A58
:100C4D007829E2FB08E2FA08E2F98C82758300EF5D
:0E0C5D00120855C296120E5F120E330C80BEA6
:010C6B002266
:10000300E47808F208F2780C7C007DFE7BFF7A0727
:100013007907FE7F021207E9780E7C007DFE7BFFE5
:100023007A0779097E007F091207E978177C007D3A
:10003300FE7BFF7A0779127E007F071207E9E478D7
:100043001EF208F208F208F208F208F27BFE7A00C8
:10005300790C782804F2E4FD120C19780CE264316F
:1000630060217431F27BFE7A00790C78287401F2F6
:10007300E4FD120A4C120A3F120DE37BFF7A057965
:100083007480197BFE7A00790E78287406F27D015C
:10009300120C19120DE37BFF7A0579857F90120C00
:1000A300B67FE87E03120C727BFF7A067940120B4F
:1000B300C5120B6CEF60FAC37809E2940618E29458
:1000C30000505D7807E2FF64116036EF6421603110
:1000D300EF6441602CEF64126027EF64226022EF2B
:1000E3006442601DEF64146018EF64246013EF64CE
:1000F30044600EEF64186009EF64286004EFB448AD
:100103001F12089D780808E22417F8EFF27807E237
:10011300F5807809E22401F218E23400F202046463
:100123007807E26488600302046A7809E26406706F
:100133000218E2600302046A781EF20804F2E4780B
:100143000AF208F27808E2FE08E2FF08E2FC08E29D
:10015300FDC39FEC9E5023AF05740E2FF8E2FE748F
:10016300172FF8E26E6006E4781EF208F2780BE2CD
:100173002401F218E23400F280CA781FE2700218F8
:10018300E27003020420E4780AF208F2780AE2FE3D
:1001930008E2FFC39406EE9400501474172FF8740A
:1001A3002DF2780BE22401F218E23400F280DD1222
:1001B3000DDD7BFF7A0579967F90120CB67BFF7A73
:1001C3000579A77F88120CB6120E67D2957FB87E89
:1001D3000B02032E120B6C7807E264116003020218
:1001E3007E7821E2700218E2600302026F780AF25D
:1001F30008F2780AE2FE08E2FFC39406EE94005088
:1002030014740E2FF87432F2780BE22402F218E21F
:100213003400F280DD780AE4F20804F2780AE2FEA0
:1002230008E2FFC39406EE94005014740E2FF87482
:1002330036F2780BE22402F218E23400F280DD1287
:100243000A3F120DE37BFF7A0579B87F90120CB653
:100253007BFF7A0579C97F88120CB67820E4F2080F
:1002630004F2120E677F887E1302032E7821E27058
:100273000218E270030201D702036B7807E26421DC
:10028300600302036E7820F2088068120B6C780713
:10029300E2FF64116037EF64216032EF6441602D47
:1002A300EF64126028EF64226023EF6442601EEF64
:1002B30064146019EF64246014EF6444600FEF6406
:1002C30018600AEF64286005EF6448703212089DD5
:1002D300782208E2240EF8EFF27807E2FF12089D75
:1002E300782208E22417F8EFF27823E22401F218C7
:1002F300E23400F27BFE7A007917120AA6808C782A
:1003030007E26488702B7823E26406700218E270B7
:1003130020120A3F7822120DDF7BFF7A0579DA7FFC
:1003230090120CB6120E677FD07E07120C72020475
:100333000E7807E26484600302028E7822F208F2E8
:10034300780AF208F2780AE2FE08E2FFC39406EEA6
:100353009400501474172FF8742DF2780BE22401D3
:10036300F218E23400F280DD02040E7807E26481C1
:10037300704A120D48120B6C7807E2B41118120D73
:10038300E37BFF7A0579EB7F90120CB67FD07E0773
:10039300120C727FA1227807E2B42118120DE37BBD
:1003A300FF7A0579FC7F90120CB67FD07E07120C82
:1003B300727FA2227807E2B484BB804F7807E2649D
:1003C30082704E120CEE120B6C7807E2B411181205
:1003D3000DE37BFF7A06790D7F90120CB67FD07EFA
:1003E30007120C727FB1227807E2B42118120DE3D1
:1003F3007BFF7A06791E7F90120CB67FD07E0712A0
:100403000C727FB2227807E2B484BB120D1D020185
:10041300D77807E2648460030201D78054120DE3A6
:100423007BFF7A06792F7F90120CB6120DF87FB8F6
:100433007E0B120C72E4780AF208F2780AE2FE08E4
:10044300E2FFC39406EE9400501474172FF8742D32
:10045300F2780BE22401F218E23400F280DD120D8F
:10046300DD1209D40200B47807E264846003020059
:10047300B4E4780AF208F2780AE2FE08E2FFC394D1
:1004830006EE9400501474172FF8742DF2780BE2D3
:100493002401F218E23400F280DD120DDD1209D4DA
:0504A300C2950200B447
:0B0E4A0075815F120D73C2950200035A
:10095400020E4AE493A3F8E493A34003F68001F261
:1009640008DFF48029E493A3F85407240CC8C333A4
:10097400C4540F4420C8834004F456800146F6DF73
:10098400E4800B0102040810204080900E1AE47EDB
:10099400019360BCA3FF543F30E509541FFEE49368
:1009A400A360010ECF54C025E060A840B8E493A32F
:1009B400FAE493A3F8E493A3C8C582C8CAC583CA5A
:1009C400F0A3C8C582C8CAC583CADFE9DEE780BE12
:010E260000CB
:10071900E709F608DFFA8046E709F208DFFA803EC2
:1007290088828C83E709F0A3DFFA8032E309F608AF
:10073900DFFA8078E309F208DFFA807088828C8317
:10074900E309F0A3DFFA806489828A83E0A3F608CB
:10075900DFFA805889828A83E0A3F208DFFA804CA5
:1007690080D280FA80C680D4806980F2803380107C
:1007790080A680EA809A80A880DA80E280CA8033E5
:1007890089828A83ECFAE493A3C8C582C8CCC5835D
:10079900CCF0A3C8C582C8CCC583CCDFE9DEE7802D
:1007A9000D89828A83E493A3F608DFF9ECFAA9F0AC
:1007B900EDFB2289828A83ECFAE0A3C8C582C8CC02
:1007C900C583CCF0A3C8C582C8CCC583CCDFEADE1B
:1007D900E880DB89828A83E493A3F208DFF980CC7D
:1007E90088F0EF60010E4E60C388F0ED2402B40476
:1007F9000050B9F582EB2402B4040050AF2323451D
:06080900822390076973D1
:10080F00BB010689828A83E0225002E722BBFE02E7
:09081F00E32289828A83E493221A
:10082800BB010CE58229F582E5833AF583E0225085
:1008380006E92582F8E622BBFE06E92582F8E222CF
:0D084800E58229F582E5833AF583E49322E9
:10085500F8BB010DE58229F582E5833AF583E8F0D9
:10086500225006E92582C8F622BBFE05E92582C885
:02087500F2226D
:10087700D083D082F8E4937012740193700DA3A310
:1008870093F8740193F5828883E473740293686024
:06089700EFA3A3A380DF24
:00000001FF
