:03000000020A5D94
:0C0A5D00787FE4F6D8FD758127020A2896
:10000300B1BECFB5C1D0D6D0CEC4C4A3BFE9CDE273
:10001300C8CED2E2CEBBD6C3B7B4B0D7CFD4CABE54
:10002300D6C3B6FEBCB6D7D6BFE2A3ACBFC9D4DA3B
:10003300CAB9D3C3B8FCB7BDB1E3B8FCC1E9BBEEE1
:1000430000BDF0C5F4BFC6BCBCD3D0CFDEB9ABCBCB
:10005300BE476F6C64656E2050616C6D20544543E0
:100063004800000000000000000000000000000045
:100073000000001E000000000007F0000000000068
:100083000000007F8000000000180C000001000049
:10009300000001FF80000000002000000013100397
:1000A300FE0003FFC000000000580000003F301FA7
:1000B300FFC003FFE0000000008C03F0007FE07C42
:1000C30001E003FFF0000000013606C0005FC0FF3F
:1000D300FC6001FFF0000000021B0F8000FF01FE27
:1000E3000F3000EFF0000000026D9F00003E03FFA1
:1000F300F19000FFF80000000436FE0001FF07FF47
:10010300FC9000EFFFFF800004DB7E0003FF87FF0E
:10011300FCD0000FFFFFC000046DFC0007FF8FFF42
:10012300FE50000FFFFFE0000436FC1007FF8FFFB7
:10013300FE90000FFFFFE000041BF81007FFCFFF46
:10014300FE80000FFFFFF000040FF81007FFFFFF12
:10015300FA000007FFFFF0000407F01007FFFFFF9E
:10016300FA0000FFFFFFF8000203F02007FFFFFF84
:10017300BA0000FDFFFFFC000203F02003FFFFDFD6
:10018300B80000C1C03FFC000101E04000FFFFDFF9
:10019300B0000081C03FCE000081E080007FFFDF20
:1001A300A0000081801DCF000041E100003FFF9BC4
:1001B30000000183801FC7800021E200001FFDB6FD
:1001C300000001C3000EE6800019EC000007FE20CA
:1001D300000000C3000767400007F00000033E0073
:1001E300000000020003E7A00000000000028E00F0
:1001F300000000060003830000000000000203006B
:1002030000000006000703007746742480060400FC
:100213000000001C000600005545545780000000F4
:100223000000001C000E00004545745780080000C4
:1002330000000000001C00005545447480F00000DD
:10024300000000000038000077764754800000006B
:10025300000000000000000010000000000000008B
:10026300000000000000000000000000000000008B
:10027300000000000000000000000000000000007B
:10028300000000000000000000000000000000006B
:10029300000000000000000000000000000000005B
:1002A300000000000000000000000000000000004B
:1002B30000000000000000010080000FFF000000AC
:1002C3000000000000000C430180007FFFF00000ED
:1002D30000000000000019FF070007FFFFFE0000F9
:1002E3000000000000013FFC1E001FFFFFFF800015
:1002F300000000000001BFFFFC007FFC007FC00086
:10030300000000000001FFFFF000FFC0000FE0004D
:10031300000000000001FFFFE003FFFFFC01F0000D
:10032300000000000001DFFFC007FFFFFF80F000B7
:10033300000000000003FFFF000FFFFFFFE0380095
:10034300000000000007FFF8001FFFF003F838006B
:10035300000000000007FFE0003FFFFFC07C180023
:100363000000000000047FF0003FFFFFF81E0800BC
:10037300000000000001FFF8007FFFFFFE0F0800F0
:1003830000000000000FFFFC00FFFFFFFF870800D5
:1003930000000000001FFFFE00FFFFFFFF83880037
:1003A30000000000003FFFFE01FFFFFFFFC38800C6
:1003B30000000000007FFFFE01FFFFFFFFE1880058
:1003C3000000000000FFFFFE03FFFFFFFFE18800C6
:1003D3000000000001FFFFFE03FFFFFFFFF18800A5
:1003E3000000000001FFFFFE03FFFFFFFFF3080013
:1003F3000000000001FFFFFF07FFFFFFFFF21000F7
:100403000000000001FFFFFF8FFFFFFFFFF0200050
:100413000000000001FFFFFFFFFFFFFFFFF00000F0
:100423000000000001FFFFFFFFFFFFFFFF70000060
:100433000000000001FFFFFFFFFFFFFEFF70000051
:100443000000000001FFFFFFFFFFFFFEFF70000041
:100453000000000000FFFFFFFFFF7FFF7F20000081
:100463000000000000FFFFFFFFFFBFFF7F20000031
:1004730000000000007FFFFFFFFFDFFF7E20000082
:1004830000000000003FFFFFFFFFDFFF3E400000D2
:1004930000000000001FFFFFFFFFCFFF3C400000F4
:1004A30000000000000FFFFFFFFFCFFE38400000F9
:1004B300000000000007FFFFFFFF8FFE3840000031
:1004C300000000000001FFFFFFFF8FFE304000002F
:1004D300000000000000FFFFFFFF1F7C2040000022
:1004E3000000000000007FFFFFFE1E7800400000B8
:1004F3000000000000003FFFFFFE1EF000000000B0
:100503000000000000001FFFFFDA3CE000000000D5
:1005130000000000000007FFFFF230800000000031
:1005230000000000000001FFFFF1200000000000B8
:1005330000000000000000FE7FF00000000000004B
:10054300000000000000007C3FF0000000000000FD
:1005530000000000000000781FE000000000000021
:10056300000000000000007207E00000000000002F
:10057300000000000000007000E000000000000028
:100583000000000000000060007800000000000090
:100593000000000000000060006000000000000098
:1005A30000000000000000C003F000000000000095
:1005B300000000000000014004D80000000000001B
:1005C300000000000000010001080000000000001E
:1005D300000000000000020C020000000000000008
:1005E30000000000000002400400000000000000C2
:1005F3000000000000000C480000000000000000A4
:10060300000000000000384100000000000000006E
:1006130000000000000FE2000000000000000000E6
:100623000000000000004000000000000000000087
:1006330000000000000000000000000000000000B7
:1006430000000000000000000000000000000000A7
:100653000000000000000000000000000000000097
:02066300000095
:100A0100D294C2937D30E4FF1208767D01E4FF1297
:100A110008767F647E00120A697D06E4FF1208767B
:070A21007D0CE4FF020876E2
:040992008E1C8F1D0B
:100996007D30E4FF1208767D80E4FF120876E4F5E8
:1009A6001FE4F51EE51F75F010A47C00251EFFEC64
:1009B60035F0FEE51D2FF582E51C12086E051EE5D5
:0F09C6001EC3941040DE051FE51FC3940440D2EA
:0109D50022FF
:0408D0008E168F17DA
:1008D4007D30E4FF1208767D88E4FF120876E4F5A3
:1008E40019F518E51975F010A47C002518FFEC35EE
:1008F400F0FEE5172FF582E51612086E0518E518C7
:10090400C3941040DE7D90E4FF120876751901E46B
:10091400F518E51975F010A47C002518FFEC35F0E6
:10092400FEE5172FF582E51612086E0518E518C3C3
:04093400941040DEFD
:01093800229C
:040665008E208F2133
:10066900E4F523E4F5227D34E4FF120876E523243A
:1006790080FDE4FF120876E5222480FDE4FF1208DC
:10068900767D30E4FF120876E52275F002A4FDAC10
:10069900F0E52375F010A42DFFE5F03C1208661271
:1006A900084C0522E522C3940840BB0523E523C372
:1006B900942040AF752320E4F5227D34E4FF12082D
:1006C90076E5232460FDE4FF120876E5222488FDFF
:1006D900E4FF1208767D30E4FF120876E52275F012
:1006E90002A4FDACF0E52375F010A42DFFE5F03C64
:1006F90012086612084C0522E522C3940840BB057E
:0F07090023E523C3944040AF7D36E4FF0208761A
:0407C3008E248F25CC
:1007C700E4F527E4F5267D34E4FF120876E52724CF
:1007D70080FDE4FF120876E5262488FDE4FF120871
:1007E700767D30E4FF120876E52675F002A4FDACAD
:1007F700F0E52775F010A42DFFE5F03CFEE5252F69
:10080700F582E52412086EE52675F002A4FDACF02A
:10081700E52775F010A42DFFE5F03CCF2401CF3478
:1008270000FEE5252FF582E52412086E0526E5264C
:10083700C3940840910527E527C3942040857D365A
:05084700E4FF02087649
:040718008F108D11A0
:10071C00751580E4F514E4F513E4F5127D34E4FF6B
:10072C00120876E51325E02480FDE4FF120876E537
:10073C00152512FDE4FF1208767D30E4FF120876D1
:10074C00AD107F01120876AD107F011208760512EC
:10075C00E512C3940840C5E4F5127D34E4FF120899
:10076C0076E51325E02481FDE4FF120876E51525D6
:10077C0012FDE4FF1208767D30E4FF120876AD110D
:10078C007F01120876AD117F011208760512E51271
:10079C00C3940840C50513E513C394105003020716
:1007AC00257515880514E514C3940250030207221D
:0707BC007D36E4FF02087620
:060939008F088D098B0AF6
:10093F00E4F50FE50FC3950D5042E4F50EE50EC338
:10094F00950C50347D34E4FF120876E50B250FFD2E
:10095F00E4FF120876E50A250EFDE4FF1208767D06
:10096F0030E4FF120876AD087F01120876AD097FDB
:10097F0001120876050E80C5050F80B77D36E4FF9E
:03098F00020876E5
:100A48007D30E4FF1208767D01E4FF1208767FB45A
:050A58007E00020A69A6
:10084C00E52275F002A4FDACF0E52375F010A42DA3
:10085C00FFE5F03CCF2401CF3400FEE5212FF582DB
:0A086C00E5203EF583E493FD7F01D3
:040876008F1A8D1B2D
:10087A007F327E00120A69AF1BD290C292D291E4F3
:10088A00FED292C2920EBE05F8C291D292C292E5EF
:10089A001A6004D2918002C291D292C292C291D2BB
:1008AA0092C292E4FDE4FEEF25E0FF9291D292C259
:1008BA00920EBE04F2C291E4FED292C2920EBE041D
:0508CA00F80DBD02E085
:0108CF002206
:0B0A6900EF1FAC0670011E4C70F6225F
:0409D6008E168F17D3
:1009DA00E4FBFAC3EB9517EA9516501A9000007FCC
:1009EA00017E00120A69A3E582640F458370F00B49
:0609FA00BB00010A80DDD4
:010A000022D3
:100A280075815F120A017E007F441208D07FD07E54
:100A3800071209D6120A487FD07E071209D680E627
:00000001FF
