:030000000203BA3E
:0C03BA00787FE4F6D8FD7581570201C879
:10013F002020202020202020202020202020203A96
:10014F0020202D202D202D20202D202D202D202052
:10015F002020202020204E616D652020202020208F
:10016F002D2D2D2D2D2D2D2D2D2D2D2D2D2D2D2DB0
:10017F00004320202020202020202020202020206D
:10018F003A20202D202D202D20202D202D202D20F8
:10019F00202020202020204E616D6520202020204F
:1001AF00202D2D2D2D2D2D2D2D2D2D2D2D2D2D2D7D
:0901BF002D0031323334353600D5
:0B03C600EF1FAC0670011E4C70F62209
:04034F007FD07E07D6
:040353008E0F8F106A
:10035700E4FBFAC3EB9510EA950F501A9000007F63
:10036700017E001203C6A3E582640F458370F00B7C
:06037700BB00010A80DD5D
:01037D00225D
:10037E00D294C2937D30E4FF12022D7D01E4FF1270
:10038E00022D7F647E001203C67D06E4FF12022D4D
:07039E007D0CE4FF02022DBB
:1003A5007D30E4FF12022D7D01E4FF12022D7FB4A2
:0503B5007E000203C6FA
:0602DA008B538A54895584
:1002E0001203A57D80E4FF12022DE4F557E4F556D4
:1002F000AB53AA54A95575F010E557A42556F582BD
:10030000E435F0F5831202270556E556C3941040F4
:0A031000DF0557E557C3940440D3FE
:01031A0022C0
:06031B007B007A00790866
:080321008F0F8B108A11891265
:100329001203A5AD0FE4FF12022DE4F513AB10AAD9
:1003390011A9128513827583001202270513E5138B
:05034900C3941040E820
:01034E00228C
:06022700120112FD7F012F
:02022D00AB071D
:10022F007F327E001203C6D290C292D291E4FFD2E7
:10023F0092C2920FBF05F8C291D292C292EB6004A4
:10024F00D2918002C291D292C292C291D292C292A4
:10025F00E4FEE4FFED25E0FD9291D292C2920FBF32
:10026F0004F2C291E4FFD292C2920FBF04F80EBE05
:02027F0002E09B
:01028100225A
:060282008B0F8A108911A8
:1002880078127C007D007BFF7A0179807E007F41B7
:100298001200D31203A5AB0FAA10A9111200F9F589
:1002A80024900001120112F526900002120112F5A5
:1002B80028900003120112F52B900004120112F588
:1002C8002D900005120112F52F7B007A0079120299
:0202D80002DA48
:1001C80078087C007D007BFF7A0179C17E007F077B
:1001D8001200D375815F12037E12034F7BFF7A01F1
:1001E800793F1202DA12034F7B007A007908120273
:1001F8008212034F7F8012031B12034F7F9012035A
:100208001B12034F7B007A0079087F8812032112A2
:0F021800034F7B007A0079087F9812032180BA88
:10000300E709F608DFFA8046E709F208DFFA803EDF
:1000130088828C83E709F0A3DFFA8032E309F608CC
:10002300DFFA8078E309F208DFFA807088828C8334
:10003300E309F0A3DFFA806489828A83E0A3F608E8
:10004300DFFA805889828A83E0A3F208DFFA804CC2
:1000530080D280FA80C680D4806980F28033801099
:1000630080A680EA809A80A880DA80E280CA803302
:1000730089828A83ECFAE493A3C8C582C8CCC5837A
:10008300CCF0A3C8C582C8CCC583CCDFE9DEE7804A
:100093000D89828A83E493A3F608DFF9ECFAA9F0C9
:1000A300EDFB2289828A83ECFAE0A3C8C582C8CC1F
:1000B300C583CCF0A3C8C582C8CCC583CCDFEADE38
:1000C300E880DB89828A83E493A3F208DFF980CC9A
:1000D30088F0EF60010E4E60C388F0ED2402B40493
:1000E3000050B9F582EB2402B4040050AF2323453A
:0600F3008223900053730C
:1000F900BB010689828A83E0225002E722BBFE0205
:09010900E32289828A83E4932237
:10011200BB010CE58229F582E5833AF583E02250A2
:1001220006E92582F8E622BBFE06E92582F8E222EC
:0D013200E58229F582E5833AF583E4932206
:00000001FF
