:030000000202BA3F
:0C02BA00787FE4F6D8FD75815A0203013C
:100212002020202057656C636F6D653A20202020D6
:10022200002020202045696E737465696E202020AD
:1002320020002020202020202020202020202020DC
:10024200203A20202D202D202D20202D202D202D44
:1002520020202020202045696E737465696E20205D
:1002620020202D2D2D2D2D2D2D2D2D2D2D2D2D2DD6
:100272002D2D00432020202020202020202020205F
:1002820020203A20202D202D202D20202D202D2011
:100292002D20202020202045696E737465696E2010
:1002A2002020202D2D2D2D2D2D2D2D2D2D2D2D2DA3
:0802B2002D2D2D00FEFDFBF7D0
:0C05A800015A0007532D2D2D2D2D2D0084
:0B05B500EF1FAC0670011E4C70F62218
:040518008E0A8F0BAD
:10051C00E4FBFAC3EB950BEA950A501A9000007FA6
:10052C00017E001205B5A3E582640F458370F00BC4
:06053C00BB00010A80DD96
:010542002296
:10056C00D294C2937D30E4FF1203D57D01E4FF12D7
:10057C0003D57F647E001205B57D06E4FF1203D51A
:07058C007D0CE4FF0203D522
:100593007D30E4FF1203D57D01E4FF1203D57FB460
:0505A3007E000205B519
:0604D7008B4E8A4F895094
:1004DD001205937D80E4FF1203D5E4F552E4F55146
:1004ED00AB4EAA4FA95075F010E552A42551F582D7
:1004FD00E435F0F5831203CF0551E551C394104057
:0A050D00DF0552E552C3940440D309
:0105170022C1
:080543008B0A8A0B890CAD073D
:10054B00E4FF1203D5E4F50DAB0AAA0BA90C850D3C
:10055B00827583001203CF050DE50DC3941040E89F
:01056B00226D
:0603CF00120112FD7F0186
:0203D500AB0774
:1003D7007F327E001205B5D290C292D291E4FFD24D
:1003E70092C2920FBF05F8C291D292C292EB6004FB
:1003F700D2918002C291D292C292C291D292C292FB
:10040700E4FEE4FFED25E0FD9291D292C2920FBF88
:1004170004F2C291E4FFD292C2920FBF04F80EBE5B
:0204270002E0F1
:0104290022B0
:06042A008B0A8A0B890C0D
:10043000780D7C007D007BFF7A0279757E007F411C
:100440001200D3120593AB0AAA0BA90C1200F9F5FE
:100450001F900001120112F521900002120112F505
:1004600023900003120112F526900004120112F5E8
:1004700028900005120112F52A7B007A00790D02FE
:0204800004D79F
:1004820075A0F0E5A054F064F060477F0A7E001288
:100492000518E5A054F064F06027E5A064F0F9E4E3
:1004A200FF8016EFC39404501BE5A054F064F06083
:1004B20006E5A0F4FD800D0FEF9002B693F5A08043
:1004C200E27F0022E5A054F0FFBFF0F8E94DF55AB3
:0404D200FF227F0086
:0104D6002203
:10034600EF12013F037E1103921203A61403BA189B
:1003560003832103972203AB2403BF2803884103A9
:100366009C4203B04403C448038D8103A18203B5B4
:100376008403C988000003CC750A318049750A32A6
:100386008044750A33803F750A41803A750A348085
:1003960035750A358030750A36802B750A428026F7
:1003A600750A378021750A38801C750A39801775D9
:1003B6000A438012750A2A800D750A308008750A6C
:0803C600238003750A44AF0A0D
:0103CE00220C
:10016500E4F508F50975815F12056C7BFF7A027964
:10017500341204D7120482EF60FAE55A6411604123
:10018500E55A6421603BE55A64416035E55A6412DD
:10019500602FE55A64226029E55A64426023E55AD6
:1001A5006414601DE55A64246017E55A64446011BF
:1001B500E55A6418600BE55A64286005E55AB448A9
:1001C50022AF5A12034674532509F8A607855A80AB
:1001D5000509E509700205087B007A0079531204C8
:1001E5002A8091E55A6488708BE509640645087094
:1001F500831205937BFF7A0279127F901205437B68
:0D020500FF7A0279237F88120543020179F8
:1002C600020165E493A3F8E493A34003F68001F2E8
:1002D60008DFF48029E493A3F85407240CC8C33339
:1002E600C4540F4420C8834004F456800146F6DF08
:1002F600E4800B01020408102040809005A8E47EEB
:10030600019360BCA3FF543F30E509541FFEE493FC
:10031600A360010ECF54C025E060A840B8E493A3C3
:10032600FAE493A3F8E493A3C8C582C8CAC583CAEE
:10033600F0A3C8C582C8CAC583CADFE9DEE780BEA6
:0105B4000046
:10000300E709F608DFFA8046E709F208DFFA803EDF
:1000130088828C83E709F0A3DFFA8032E309F608CC
:10002300DFFA8078E309F208DFFA807088828C8334
:10003300E309F0A3DFFA806489828A83E0A3F608E8
:10004300DFFA805889828A83E0A3F208DFFA804CC2
:1000530080D280FA80C680D4806980F28033801099
:1000630080A680EA809A80A880DA80E280CA803302
:1000730089828A83ECFAE493A3C8C582C8CCC5837A
:10008300CCF0A3C8C582C8CCC583CCDFE9DEE7804A
:100093000D89828A83E493A3F608DFF9ECFAA9F0C9
:1000A300EDFB2289828A83ECFAE0A3C8C582C8CC1F
:1000B300C583CCF0A3C8C582C8CCC583CCDFEADE38
:1000C300E880DB89828A83E493A3F208DFF980CC9A
:1000D30088F0EF60010E4E60C388F0ED2402B40493
:1000E3000050B9F582EB2402B4040050AF2323453A
:0600F3008223900053730C
:1000F900BB010689828A83E0225002E722BBFE0205
:09010900E32289828A83E4932237
:10011200BB010CE58229F582E5833AF583E02250A2
:1001220006E92582F8E622BBFE06E92582F8E222EC
:0D013200E58229F582E5833AF583E4932206
:10013F00D083D082F8E4937012740193700DA3A34F
:10014F0093F8740193F5828883E473740293686063
:06015F00EFA3A3A380DF63
:00000001FF
