:0300000002123DAC
:0C123D00787FE4F6D8FD75816B02128406
:100631000D0A0D0A004572726F720D0A0045525281
:100641004F52000D0A004D656E752020202020209C
:1006510020202020202000313A526573657420410A
:100661003A46696E67657200323A416C7465722070
:10067100423A4750532020200020202020433A5264
:10068100654C6F636B202020200046696E676572A0
:100691002020202020202020202000202020203168
:1006A1003A5363616E20202020202000202020204A
:1006B100323A496E707574202020202000202020BD
:1006C10020433A43616E63656C202020200047502F
:1006D1005320202020202020202020202020002006
:1006E10020313A43757272656E7447505320200071
:1006F1002020323A53657443757272656E742020FE
:10070100002020433A43616E63656C202020202045
:100711002000202020203030303030303030202078
:100721002020002020202031313131313131312060
:10073100202020002020202057656C636F6D653AD2
:1007410020202020002020202045696E73746569D7
:100751006E2020202000205265736574202053757F
:1007610063636573732000202032203620322020FD
:100771003620322036202000204368616E676520D4
:1007810053756363657373200020202020536361D8
:100791006E6E696E67202020200020202020537576
:1007A10063636573732120202020002020202020F6
:1007B1004661696C2121202020202000202020205A
:1007C10020496E70757446202020202000202020B2
:1007D1002020303030304232202020202000506153
:1007E1007373776F7264202057726F6E67210053A5
:1007F1006176655F446174612E6C617469747564BE
:1008010065203D2000536176655F446174612E6C03
:100811006F6E676974756465203D200047505320F1
:1008210044415441206973206E6F7420757365666D
:10083100756C6C210D0A002A2A2A2A2A2A2A2A2AB8
:100841002A2A2A2A2A0D0A002C005365617263683C
:10085100696E67204750532E2E2E000D0A53756383
:100861006365737321004C6F636174696F6E20203F
:1008710057726F6E672100FEFDFBF7492020202093
:10088100202020202020202020203A20202D202D33
:10089100202D20202D202D202D20202020202045FE
:1008A100696E737465696E202020202D2D2D2D2DEC
:1008B1002D2D2D2D2D2D2D2D2D2D2D00492020209F
:1008C10020202020202020202020203A20202D2000
:1008D1002D202D20202D202D202D202020202020D6
:1008E10045696E737465696E202020202D2D2D2D94
:1008F1002D2D2D2D2D2D2D2D2D2D2D2D0043202058
:100901002020202020202020202020203A20202DBF
:10091100202D202D20202D202D202D202020202095
:100921002045696E737465696E202020202D2D2D60
:100931002D2D2D2D2D2D2D2D2D2D2D2D2D004C61C0
:100941007469747564653A202020202020204C6F42
:100951006E6769747564653A20202020202020206C
:100961002020202020202020202020202020202086
:100971002020202020202020202020202020003086
:10098100003236323632363236002D2D2D2D2D2DB8
:010991000065
:1017000041000800440000000000004100050041C5
:10171000001500410009004100060041000700419A
:101720000004004A0081333631342E333934380016
:0E1730004B000A31323032362E33393131005F
:0B19E100EF1FAC0670011E4C70F622D8
:09161F00C290900008E0FF7E007B
:081628009000B0EEF0A3EFF01A
:10163000E4A3F0A3F09000B0E0FEA3E0FFC39000AD
:10164000B3E09F9000B2E09E5025E4FBFA7F017E5C
:10165000001219E10BBB00010AEB640F4A70EE9017
:0F16600000B3E004F070CE9000B2E004F080C65A
:01166F002258
:03001F00DFFE22DF
:10193C00D3EF9400EE940040147D6E7C00ED1D708E
:0D194C00011CED4C70F7EF1F70E61E80E3EC
:01195900226B
:071A2200AE071FEE70FA226F
:061A290012161FD29022EC
:1019A70012161FD2907F787E0012162812161FD2A9
:0219B70090227C
:081A12008F993099FDC2992261
:1017B3009000F0EBF0A3EAF0A3E9F09000F0E0FB77
:1017C300A3E0FAA3E0F9120A8860179000F0A3E4FB
:1017D30075F001120B06A9F0FA120A88FF121A1209
:0317E30080D92288
:091A0000D288D2A8D2AFD2B222E2
:03000300020E1BCF
:100E1B00C0E0C0F0C083C082C0D075D000C000C09D
:0D0E2B0001C002C003C004C005C006C0071E
:100E3800900005E4F07FBC121A2230B203020F3290
:100E48007DE87C0320B215D3ED9400EC9400400CAF
:100E58007F01121A22ED1D70EB1C80E820B20302FC
:100E68000F047C017DF430B215D3ED9400EC9400AE
:100E7800400C7F01121A22ED1D70EB1C80E8E4FB88
:100E8800E4FA7C007D3C20B215D3ED9400EC94008C
:100E9800400C7F01121A22ED1D70EB1C80E87C01CA
:100EA8007DF430B221D3ED9400EC940040187F0A11
:100EB800121A22900005E004F0ED1D70011CE0D329
:100EC800941E40DE806474002BF582E43400F583C0
:100ED800E0C313F0900005E0C39408400E74002BA3
:100EE800F582E43400F583E04480F0900005E4F0F6
:100EF8000AEA6408708C0BEB64047084900003E0C9
:100F0800F4FF900002E0900015B507137401F0FBA0
:100F18007A0079001217B37BFF7A0679318008E4EA
:0A0F2800F07BFF7A0679361217B34A
:100F3200D007D006D005D004D003D002D001D00013
:0B0F4200D0D0D082D083D0F0D0E032BD
:100CC80075A0F0121A00E5A054F064F0605A7F0A8B
:100CD8007E00121628E5A054F064F0602DE5A064AB
:100CE800F09000A7F0E4FF8019EFC39404501EE5CC
:100CF800A054F064F06009E5A0F49000A8F0800D1D
:100D08000FEF90087893F5A080DF020E14E5A05449
:100D1800F0FFBFF0F8121A299000A8E0FF9000A792
:100D2800E04FFF900009F022900015E07003020EDA
:100D380014E4F0900002E0120B1C0DC3000D7901C1
:100D48000D82020D8B030D93040D9B050DA3060D5B
:100D5800AB070DB3080DBB090DD30A0DFB100DDB56
:100D6800190DE31D0DCB400DEB460DF34700000EAA
:100D78000B9000097411F0020E0B9000097421F019
:100D8800020E0B9000097441F080789000097412EB
:100D9800F080709000097422F08068900009744215
:100DA800F080609000097414F08058900009742451
:100DB800F080509000097444F0804890000974282D
:100DC800F080409000097484F0803890000974889D
:100DD800F080309000097481F080289000097482B6
:100DE800F080209000097418F08018900009744869
:100DF800F08010900008E06004E4F080069000089D
:100E080074C8F0121A29900009E0FF22E490000942
:020E1800F0FFE9
:010E1A0022B5
:1010D100EF120B1C11091111291211491411691870
:1010E10011112111312211512411712811194111AC
:1010F10039421159441179481121811141821161FB
:1011010084118188000011879000A77431F08076E6
:101111009000A77432F0806E9000A77433F080665F
:101121009000A77441F0805E9000A77434F080565F
:101131009000A77435F0804E9000A77436F0804679
:101141009000A77442F0803E9000A77437F080367B
:101151009000A77438F0802E9000A77439F0802693
:101161009000A77443F0801E9000A7742AF08016A7
:101171009000A77430F0800E9000A77423F08006D1
:0B1181009000A77444F09000A7E0FF6E
:01118C002240
:10197800759850D29CE4F587758920758DFD758B17
:08198800FDD28ED2AFD2AC22D9
:091A0900C29CC28EC2ACC2AF2225
:06173F007BFF7A067944ED
:10174500900094EBF0A3EAF0A3E9F0900094E0FB9D
:10175500A3E0FAA3E0F9120A88601A900094A3E4C2
:1017650075F001120B06A9F0FA120A88F59930995D
:06177500FDC29980D6229E
:0A19EC00C2998F993099FDC299222B
:03002300020F4D7C
:0D0F4D00C0E0C0F0C083C082C0D075D018D5
:100F5A00E49000F3F0C2ACAF99C298EFB4240590C4
:100F6A000006E4F0900006E0D39405500DE0FE047C
:100F7A00F074202EF8A61F0210057824E6B44D045A
:100F8A007E0180027E007820E6B424047D0180027E
:100F9A007D00ED5E60657825E66443705E9000062C
:100FAA00E0FE04F074202EF8A61FEF640A703AFEE1
:100FBA007F50FD7B017A007916120B42900006E001
:100FCA00FF7E0078167C007D017B007A0079201272
:100FDA000A629000667401F0900006E4F0FE7F4C0D
:100FEA00FDFB7A007920120B42900006E0C3944B75
:0D0FFA004009744BF0E02420F87600D2ACE2
:0B100700D0D0D082D083D0F0D0E032F7
:10177B00E4900066F0A3F090007FF0A3F0FE7F50A2
:10178B00FD7B017A007916120B427E007F0B7D00E8
:10179B007B017A007968120B427E007F0C7D007B07
:0817AB00017A007973020B4280
:1018DD00E4FDFCC3ED9FEC9E5015E4FBFA0BBB0041
:0F18ED00010AEB647B4A70F50DBD00010C80E42D
:0118FC0022C9
:10000600AD07AC067BFF7A06793E121745ED243024
:09001600FF1219EC12173F80EBF8
:0519F6001219FBD29460
:0519FB000000000022C5
:0C19C900D295D2941219FBC2950219FBB2
:0C19D500C295D2941219FBD2950219FBA6
:0819B9001219C97FA012191DCB
:0819C100C2951219F6C294222E
:081A1A00D2951219F6C29422C4
:10191D007E08AD07C2941219FBED30E704D2958015
:0E192D0002C295D294EF25E0FDFFDEE6C294E3
:01193B002289
:10189600E4FFFE7D08D295C2941219F6EF30950545
:1018A6004401FF800354FEFFED146005EF25E0FEC2
:0318B600FFDDE46F
:0118B900220C
:0E13CD007B017A0079919000AB7406F07D01EF
:0513DB009000AAEDF0F6
:1013E0009000ADEBF0A3EAF0A3E9F0E49000ACF0DC
:1013F0009000ABE0FFA3E0C39F50411219B9E0FF9A
:101400009000AAE02FFF12191D1219C19000ADE043
:10141000FBA3E0FAA3E0F99000ACE0F5827583004D
:10142000120AA1FF12191D1219C11219D57F147EBB
:0C143000001216289000ACE004F080B41C
:01143C00228D
:0515C6009000AAEDF009
:1015CB009000ACEBF0A3EAF0A3E9F0E4FC9000ABE5
:1015DB00E0FFECC39F503C1219B99000AAE02CFF1E
:1015EB0012191D1219C11219C97FA112191D121935
:1015FB00C11218969000ACE0FBA3E0FAA3E0F98CC3
:10160B0082758300EF120ACEC294121A1A1219D5E0
:03161B000C80BA86
:01161E0022A9
:10186F00D281C2807D30E4FF12150F7D01E4FF129B
:10187F00150F7F647E001219E17D06E4FF12150F2C
:07188F007D0CE4FF02150FC0
:0B18FD007D017BFF7E007F41120A622C
:101908007D30E4FF12150F7D01E4FF12150F7FB43F
:051918007E000219E150
:0B156A009000EBEBF0A3EAF0A3E9F027
:101575001219087D80E4FF12150FE49000EFF0E4E6
:101585009000EEF09000EEE0FFC39410502690001E
:10159500EBE0FBA3E0FAA3E0F99000EFE075F010B3
:1015A500A42FF582E435F0F5831215099000EEE0DD
:1015B50004F080D09000EFE004F0E0C3940440BF55
:0115C5002203
:0816BB007A07799B7BFF7F9009
:0B16C3009000A7EBF0A3EAF0A3E9F011
:1016CE00AD07E4FF12150FE49000AAF09000AAE017
:1016DE00FFC39410501B9000A7E0FBA3E0FAA3E019
:1016EE00F98F827583001215099000AAE004F0802C
:0116FE00DB10
:0116FF0022C8
:06150900120AA1FD7F01A2
:02150F00AB0728
:101511007F327E001219E1AF05D291C293D292E4DB
:10152100FED293C2930EEEB405F7C292D293C29348
:10153100EB6004D2928002C292D293C293C292D241
:1015410093C293E4FDE4FEEF25E0FF9292D293C2B1
:10155100930EEEB404F1C292E4FED293C2930EEE66
:08156100B404F70DEDB402DD46
:01156900225F
:06143D007B017A00799AA0
:0B1443009000A7EBF0A3EAF0A3E9F093
:10144E0078AA7C007A0879BD1218FD9000A7E0FBFF
:10145E00A3E0FAA3E0F9120A889000BCF090000114
:10146E00120AA19000BEF0900002120AA19000C0D4
:10147E00F0900003120AA19000C3F0900004120A2B
:10148E00A19000C5F0900005120AA19000C7F07B54
:08149E00017A0079AA02156A27
:0B14A6009000A7EBF0A3EAF0A3E9F030
:1014B10078AA7C007A0879FE1218FD9000A7E0FB5B
:1014C100A3E0FAA3E0F9120A889000BCF0900001B1
:1014D100120AA19000BEF0900002120AA19000C071
:1014E100F0900003120AA19000C3F0900004120AC8
:1014F100A19000C5F0900005120AA19000C7F07BF1
:08150100017A0079AA02156AC3
:101844001219087BFF7A0679477F801216C37A063D
:1018540079581216BF7BFF7A0679697F881216C3FE
:0B1864007BFF7A06797A7F980216C39A
:1017E6001219087BFF7A06798B7F801216C37BFF5E
:1017F6007A06799C7F901216C37BFF7A0679AD7FB5
:0F180600881216C37BFF7A0679BE7F980216C33D
:101815001219087BFF7A0679CF7F801216C37BFFEA
:101825007A0679E07F901216C37BFF7A0679F17FFD
:0F183500881216C37BFF7A0779027F980216C3C9
:10118D0078A77C007D017BFF7A09793F12190190C8
:10119D000068E09000CEF0900069E09000CFF090F4
:1011AD00006AE09000D0F090006BE09000D1F090DC
:1011BD00006CE09000D2F090006DE09000D3F090C4
:1011CD00006EE09000D4F090006FE09000D5F090AC
:1011DD000070E09000D6F0900073E09000DDF0908C
:1011ED000074E09000DEF0900075E09000DFF0906C
:1011FD000076E09000E0F0900077E09000E1F09054
:10120D000078E09000E2F0900079E09000E3F0903B
:10121D00007AE09000E4F090007BE09000E5F09023
:10122D00007CE09000E6F07B017A0079A702156A58
:10199000D2B37F0212001FC2B37F147E0012193C23
:0719A000D2B37F1E02001FFD
:10195A00E4FEFD30B3FD7F0812001FEE25E0FE30E5
:0D196A00B3010E20B3FD0DEDB408E8AF068B
:01197700224D
:1012C90012199030B30302135130B3FD7F28120075
:1012D9001F12195A9000A7EFF012195AA3EFF01232
:1012E900195AA90712195AAC0712195A9000ACEFEA
:1012F900F07F1912001F9000A8E0FF9000A7E02FCF
:10130900FFE433FEE97583002FFFE5833EFEEC2FF2
:10131900FFE5833EFE9000ACE0758300B50718E554
:1013290083B506139000A7E0FBA3E0A3F0AF01A3E8
:10133900EFF0AF04A3EFF0EB75F00A842430D394F7
:0B1349003740057E007F0122E4FEFF1C
:011354002276
:10002600E490008BF0A3F0788F7C007D017BFF7A53
:10003600097980FE7F02120A6278917C007D017B3D
:10004600FF7A0979827E007F09120A62789A7C001B
:100056007D017BFF7A09798B7E007F07120A62E4B5
:100066009000A1F0A3F0A3F0A3F0A3F0A3F07B010E
:100076007A00798F9000AB04F0E4FD1215C690006B
:100086008FE0643160227431F07B017A00798F90C1
:1000960000AB7401F0E4FD1213DB1213CD12190844
:1000A6007BFF7A077913801A7B017A007991900099
:1000B600AB7406F07D011215C61219087BFF7A078C
:1000C60079247F901216C37FE87E031216287BFFE1
:1000D6007A08797C12156A120CC8EF60FAC3900090
:1000E6008CE0940690008BE09400506B900009E041
:1000F600FF64116036EF64216031EF6441602CEFDC
:1001060064126027EF64226022EF6442601DEF6490
:10011600146018EF64246013EF6444600EEF6418F3
:100126006009EF64286004EFB4482C1210D19000E7
:100136008BE0FCA3E0249AF58274003CF583EFF093
:10014600900009E0F58090008CE004F070069000C5
:100156008BE004F00205D6900009E0648860030293
:1001660005DC90008BE07004A3E0640660030205E2
:10017600DC9000A1F0A304F0E490008DF0A3F090D1
:10018600008BE0FEA3E0FFA3E0FCA3E0FDC39FEC31
:100196009E503174912DF58274003CF583E0FF7416
:1001A6009A2DF58274003CF583E06F6007E49000B9
:1001B600A1F0A3F090008EE004F070C390008DE0F3
:1001C60004F080BB9000A1E07002A3E0700302057A
:1001D60080E490008DF0A3F090008DE0FEA3E0FF98
:1001E600C39406EE9400501D749A2FF58274003E57
:1001F600F583742DF090008EE004F070DB90008D96
:10020600E004F080D3E490008BF0A3F01219087B91
:10021600FF7A0779357F901216C37BFF7A077946F6
:100226007F881216C3121A29C296D297C2B17FB816
:100236007E0B0203D91212C9EF4E600302052C127F
:100246000CC8900009E0641160030203069000A345
:10025600E07002A3E060030202F690008DF0A3F0C6
:1002660090008DE0FEA3E0FFC39406EE9400501DBF
:1002760074912FF58274003EF5837432F090008EEF
:10028600E02402F090008DE03400F080D390008DE1
:10029600E4F0A304F090008DE0FEA3E0FFC3940613
:1002A600EE9400501D74912FF58274003EF5837410
:1002B60036F090008EE02402F090008DE03400F0DD
:1002C60080D31213CD1219087BFF7A0779577F90D6
:1002D6001216C37BFF7A0779687F881216C39000CF
:1002E600A3E4F0A304F0121A297F887E130203D92F
:1002F6009000A3E07002A3E0700302023B02042315
:10030600900009E0642160030204269000A3F0A394
:10031600F002039A120CC8900009E0FF64116037DE
:10032600EF64216032EF6441602DEF64126028EFC4
:1003360064226023EF6442601EEF64146019EF6468
:10034600246014EF6444600FEF6418600AEF6428B9
:100356006005EF644870491210D19000A5E0FCA337
:10036600E02491F58274003CF583EFF0900009E0FB
:10037600FF1210D19000A5E0FCA3E0249AF5827448
:10038600003CF583EFF09000A6E004F070069000C4
:10039600A5E004F07B017A00799A1214A602031AEA
:1003A600900009E0648870319000A5E07004A3E035
:1003B600640670251213CDE49000A5F0A3F012197F
:1003C600087BFF7A0779797F901216C3121A297F64
:1003D600D07E0712162802056D900009E06484603D
:1003E6000302031A9000A5F0A3F090008DF0A3F08D
:1003F60090008DE0FEA3E0FFC39406EE9400501D2E
:10040600749A2FF58274003EF583742DF090008E59
:10041600E004F070DB90008DE004F080D302056DFF
:10042600900009E06481600302051D02050A1212AC
:10043600C9EF4E600302052C120CC8900009E06457
:1004460011705B1219087BFF7A07798A7F90121662
:10045600C3C2B47FC87E00121628D2B430B60320B9
:10046600B7FA121A2920B61630B71312190812163F
:10047600BB7FD07E0712162812190802050A30B66D
:10048600AD20B7AA1219087BFF7A0779AC7F9012C4
:1004960016C37FD07E0712162812190880669000B0
:1004A60009E0642170641219087BFF7A0779BD7F21
:1004B600901216C3C2B57FC87E00121628D2B53078
:1004C600B60320B7FA121A2920B61530B712121938
:1004D600081216BB7FD07E07121628121908802430
:1004E60020B60302043430B7030204341219087B21
:1004F600FF7A0779AC7F901216C37FD07E0712165B
:10050600281219081217E6020434900009E06484E0
:1005160060030204348050900009E06482704E1239
:1005260012C9EF4E60351219A70205E7120CC890E2
:100536000009E0B4110612190812118D900009E0A5
:10054600B4211D1219087BFF7A0779CE7F90121607
:10055600C37FD07E0712162812190812181580CCF0
:10056600900009E0B484C512184402023B900009C9
:10057600E06484600302023B80671219087BFF7AFD
:100586000779DF7F901216C31219A77FB87E0B1268
:100596001628E490008DF0A3F090008DE0FEA3E015
:1005A600FFC39406EE9400501D749A2FF5827400D2
:1005B6003EF583742DF090008EE004F070DB900021
:1005C6008DE004F080D3E490008BF0A3F0121908BC
:1005D60012143D0200DD900009E06484600302000D
:1005E600DDE490008DF0A3F090008DE0FEA3E0FF27
:1005F600C39406EE9400501D749A2FF58274003E43
:10060600F583742DF090008EE004F070DB90008D81
:10061600E004F080D3E490008BF0A3F012190812E6
:0B062600143DD296C297D2B10200DD55
:10167000900067E06044E4F090007FE06033E4F0C5
:101680007BFF7A0779F01217457B017A007968129F
:10169000174512173F7BFF7A0879061217457B0121
:1016A0007A00797312174512173F9000807401F089
:0B16B000227BFF7A08791D12174522EB
:100B6E00E4900091F0900066E07003020CC7E4F090
:100B7E007BFF7A0879381217457B017A00791612B5
:100B8E001745E4900091F0900091E0FFD3648094BB
:100B9E00864003020CC7EF702F90009774FFF0A3EE
:100BAE007408F0A37449F07B017A007916121012C2
:100BBE0090008BEBF0A3EAF0A3E9F04A4B6003023E
:100BCE000CBE7F01FE020CBB90008CE475F001128E
:100BDE000AF090009774FFF0A37408F0A37449F024
:100BEE0090008BE0FBA3E0FAA3E0F9121012900044
:100BFE008EEBF0A3EAF0A3E9F04A4B7003020CB7B8
:100C0E00A3E024FD602524FE603E24037065900061
:100C1E008BA3E0FAA3E0AE02FFA3A3E0FAA3E0C326
:100C2E009FFFEA9EFE78927C00803890008BA3E0B6
:100C3E00FAA3E0AE02FFA3A3E0FAA3E0C39FFFEA8C
:100C4E009EFE78687C00801B90008BA3E0FAA3E0E8
:100C5E00AE02FFA3A3E0FAA3E0C39FFFEA9EFE78D5
:100C6E00737C007D0190008BE0FBA3E0FAA3E0F91A
:100C7E00120A6290008EE0F9A3E0FAA3E090008BD6
:100C8E00C9F0A3EAF0A3E9F09000677401F09000B8
:100C9E0092E0FFB4410890007F7401F08012EFB42F
:070CAE00560EE490007FF0F8
:100CB50080077F027E00120006900091E004F0029A
:020CC5000B958D
:010CC700220A
:1018BA00C2EAD2B11219787F0A7E001218DD121715
:1018CA007B12186FD296C297C2B2D2B4D2B5D2B630
:0318DA00D2B72260
:101355001218BA1219087BFF7A08794B7F9012167A
:10136500C3120B6E121670900080E060F47BFF7A5A
:1013750008795C12174590006DE0FF3395E0FE900B
:101385000086E0C39FFFE49EFED3EF9401EE6480E8
:101395009480501E900079E0FF3395E0FE90001098
:1013A500E0C39FFFE49EFED3EF9401EE648094803A
:1013B50040127BFF7A0879677F901216C37FB87E4B
:0813C5000B021628120026227B
:10124900021355E493A3F8E493A34003F68001F253
:1012590008DFF48029E493A3F85407240CC8C333A6
:10126900C4540F4420C8834004F456800146F6DF75
:10127900E4800B0102040810204080901700E47EEE
:10128900019360BCA3FF543F30E509541FFEE4936A
:10129900A360010ECF54C025E060A840B8E493A331
:1012A900FAE493A3F8E493A3C8C582C8CAC583CA5C
:1012B900F0A3C8C582C8CAC583CADFE9DEE780BE14
:01173E0000AA
:10099200E709F608DFFA8046E709F208DFFA803E47
:1009A20088828C83E709F0A3DFFA8032E309F60834
:1009B200DFFA8078E309F208DFFA807088828C839C
:1009C200E309F0A3DFFA806489828A83E0A3F60850
:1009D200DFFA805889828A83E0A3F208DFFA804C2A
:1009E20080D280FA80C680D4806980F28033801001
:1009F20080A680EA809A80A880DA80E280CA80336A
:100A020089828A83ECFAE493A3C8C582C8CCC583E1
:100A1200CCF0A3C8C582C8CCC583CCDFE9DEE780B1
:100A22000D89828A83E493A3F608DFF9ECFAA9F030
:100A3200EDFB2289828A83ECFAE0A3C8C582C8CC86
:100A4200C583CCF0A3C8C582C8CCC583CCDFEADE9F
:100A5200E880DB89828A83E493A3F208DFF980CC01
:100A620088F0EF60010E4E60C388F0ED2402B404FA
:100A72000050B9F582EB2402B4040050AF232345A1
:060A820082239009E273DB
:100A8800BB010689828A83E0225002E722BBFE026C
:090A9800E32289828A83E493229F
:100AA100BB010CE58229F582E5833AF583E022500A
:100AB10006E92582F8E622BBFE06E92582F8E22254
:0D0AC100E58229F582E5833AF583E493226E
:100ACE00F8BB010DE58229F582E5833AF583E8F05E
:100ADE00225006E92582C8F622BBFE05E92582C80A
:020AEE00F222F2
:100AF000C5F0F8A3E028F0C5F0F8E5821582700291
:060B00001583E038F0222D
:100B0600A3F8E0C5F025F0F0E582158270021583A2
:060B1600E0C838F0E822FF
:100B1C00D083D082F8E4937012740193700DA3A368
:100B2C0093F8740193F5828883E47374029368607C
:060B3C00EFA3A3A380DF7C
:10101200900094EBF0A3EAF0A3E9F0A3E0FBA3E0D5
:10102200FAA3E0F9120A8870030210BE900094E05D
:10103200FBA3E0FAA3E0F9120A8870030210CA9037
:101042000097E0F9A3E0FAA3E0A3C9F0A3EAF0A3B2
:10105200E9F0900094A3E0FAA3E0F990009DEBF090
:10106200A3EAF0A3E9F090009AE0FBA3E0FAA3E080
:10107200F9120A88FF602690009DE0FBA3E0FAA324
:10108200E0F9120A886F701590009B75F001120A40
:10109200F090009EE475F001120AF080C990009A67
:1010A200E0FBA3E0FAA3E0F9120A887002800D9037
:1010B2000095E475F001120AF002102E900094E0FF
:0F10C200FBA3E0FAA3E0F9227B007A0079002279
:100B4200EF4E6012EF60010EEDBB010B89828A83CA
:100B5200F0A3DFFCDEFA2289F05007F709DFFCA9D7
:0C0B6200F022BBFEFCF309DFFCA9F0222E
:00000001FF
