:0300000002026099
:0C026000787FE4F6D8FD7581410202A70A
:10000300E4FDFCC3ED9FEC9E5015E4FAFB0BBB0033
:0F001300010AEB647B4A70F50DBD00010C80E41F
:0100220022BB
:10054E0079C87F287E00120003E5357002D9F3E9E1
:06055E007002FF227F0184
:010564002274
:060432008B228A238924BD
:10043800E4FEFDEDC39F5013AB22AA23A9248D82AD
:0D0448007583001203C862060D80E8AF0640
:010455002284
:0802EC008F1C8B1D8A1E891F67
:1002F400E4FFFEF520F521752DF5C3EF951CEE9472
:1003040000501BAB1DAA1EA91F8F828E831203C827
:10031400FD742E2FF8A6050FBF00010E80DCAB1D67
:10032400AA1EA91FAF1C120432742E251CF8A6079E
:10033400742F251CF876F5E51C2403F521E433F528
:1003440020E4F535AD218D36FB7A00792D02047950
:0201C4008F1A90
:1001C600E4F51B12054EEF7003AF1B22E4F541E583
:1001D600356005E4F5358003AF1B22E52564F5603F
:1001E60003AF1B22E526651A6003AF1B22E5362402
:1001F600FDFF7B007A007926120432EF652B60033F
:10020600AF1B22E51A1424FD501260251460222427
:10021600FC602724FE601A146026803BE5297002E4
:100226008013E5296407702F7FDC7E0512000380AA
:1002360026E5297022751B01801DE529701980119C
:10024600E5296401600BE52964026005E529B4032C
:0902560006751B01852837AF1B5A
:01025F00227C
:1005650075120CE4F513F514F515F516FB7A0079FB
:06057500127F050202ECFA
:10057B00751205E4F513F514F515F516FB7A0079EC
:06058B00127F050202ECE4
:02051C00AC062B
:10051E007512048C13EFF514E4F515F516FB7A003D
:07052E0079127F050202ECC7
:02053500AC0612
:1005370075380B8C39EFF53AE4F53BF53CFB7A005F
:0705470079387F050202EC88
:0204CE00AC067A
:1004D0007514018C15EFF516751701E4F518FB7A04
:0804E0000079147F050202EC13
:0204E800AC0660
:1004EA007514028C15EFF516751701E4F518FB7AE9
:0804FA000079147F050202ECF9
:02050200AC0645
:100504007514038C15EFF516751701E4F518FB7ACD
:080514000079147F050202ECDE
:1003F5008E128F131204CE7F011201C4EF7002FF1B
:10040500227F647E00120003AF13AE121204E87F50
:10041500021201C4EF7002FF227F647E0012000306
:0D042500AF13AE121205027F031201C422B4
:0905910012057B7F051201C42252
:09059A0012051C7F041201C422A9
:10049700751209E4F513F514F515F516FB7A0079CD
:0B04A700127F051202EC7F091201C455
:0104B2002227
:0905A3001205657F0C1201C4224F
:0405B800FEFDFBF752
:0305B40001400003
:1003540075A0F0E5A054F064F0604B7F0A7E0012B3
:100364000003E5A054F064F0603CE5A064F0F512ED
:10037400E4FF8017EFC394045019E5A054F064F02F
:100384006007E5A0F4F513800A0FEF9005B893F524
:10039400A080E1E5A054F0FFBFF0F87F0112011F37
:0A03A400E51245138001E4F540FF67
:0103AE00222C
:100026001204B3120354E54024DF600F24E060128B
:10003600243070167510017F01800C7510027F0246
:1000460080057510037F0312011FE51014601A1452
:1000560060381460681470030200DF147003020035
:10006600FF240570BED29680BAE4F5100511AF11D3
:10007600FE1203F5EF6006D2967F018004C2967FDA
:100086000312011F7FD07E078069E4F5101205A3D5
:10009600EF6004D2968009C2967F0312011F808307
:1000A600AF377E0012059AEF6006D2967F01800474
:1000B600C2967F0312011F7FE87E038036E4F510A7
:1000C6001205A3EF6006D2967F018004C2967F03D5
:1000D60012011F7FE87E03801AE4F510120497EFE1
:1000E6006006D2967F018004C2967F0312011F7FAD
:1000F600E87E03120003020029E4F510120591EFD1
:100106006006D2967F018004C2967F0312011F7F8C
:09011600E87E0312000302002937
:10011F00EF24FE602014604F240260030201C3E449
:10012F00F514B2907F017E001200030514E514C38D
:10013F00946440EE22E4F514B2907F017E00120029
:10014F00030514E514C3946440EE7FC87E001200CB
:10015F0003E4F514B2907F017E001200030514E54D
:10016F0014C3946440EE22E4F514B2907F017E0034
:10017F001200030514E514C3946440EE7FC87E009B
:10018F00120003E4F514B2907F017E001200030504
:10019F0014E514C3946440EE7FC87E00120003E49C
:1001AF00F514B2907F017E001200030514E514C30D
:0401BF00946440EE16
:0101C3002219
:1004B30043878075985053890F438920758BFD7549
:0B04C3008DFDC2ABD28ED2ACD2AF22B6
:0805AC008F993099FDC29922DC
:100479008B228A238924AB220524E524AA2370022E
:0E048900052314F91203AFFF1205ACDDE922C2
:030023000204567E
:10045600C0E0C0D075D008309814C298AF410541AD
:1004660074252FF8A699E541B408037535FFD0D059
:03047600D0E032A1
:10026C00020026E493A3F8E493A34003F68001F282
:10027C0008DFF48029E493A3F85407240CC8C33393
:10028C00C4540F4420C8834004F456800146F6DF62
:10029C00E4800B01020408102040809005B4E47E39
:1002AC00019360BCA3FF543F30E509541FFEE49357
:1002BC00A360010ECF54C025E060A840B8E493A31E
:1002CC00FAE493A3F8E493A3C8C582C8CAC583CA49
:1002DC00F0A3C8C582C8CAC583CADFE9DEE780BE01
:0105B7000043
:1003AF00BB010689828A83E0225002E722BBFE024C
:0903BF00E32289828A83E493227F
:1003C800BB010CE58229F582E5833AF583E02250EA
:1003D80006E92582F8E622BBFE06E92582F8E22234
:0D03E800E58229F582E5833AF583E493224E
:00000001FF
