:03000000020526D0
:0C052600787FE4F6D8FD75810F0202ED2D
:1004BE0043878075985053890F438920758BFD753E
:0B04CE008DFDC2ABD28ED2ACD2AF22AB
:08054D008F993099FDC299223B
:1003F300900012EBF0A3EAF0A3E9F0900012E0FB07
:10040300A3E475F00112028EA9F0FA120248FF125A
:05041300054DDDE722AC
:03002300020329AC
:10032900C0E0C083C082C0D075D008309823C2987D
:10033900900029E0FF04F074162FF582E43400F5EB
:1003490083E599F0900029E0B4080690002674FF2F
:0A035900F0D0D0D082D083D0E03283
:0B03C800B2EA7FC87E001203D3B2EA45
:1003D300E4FDFCC3ED9FEC9E5015E4FAFB0BBB0060
:0F03E300010AEB647B4A70F50DBD00010C80E44C
:0103F20022E8
:10050D0079C87F287E001203D3900026E07002D9AF
:08051D00F1E97002FF227F01E9
:0105250022B3
:0E039600900012EFF0A3EBF0A3EAF0A3E9F061
:1003A400E4FFFE900012E0FDEEC39D5016A3E0FBB7
:1003B400A3E0FAA3E0F98E827583001202616FFF55
:0303C4000E80E0C8
:0103C7002213
:0E01AE0090000CEFF0A3EBF0A3EAF0A3E9F051
:1001BC00E4FFFEA3F0A3F090001E74F5F090000C89
:1001CC00E0FDC3EF9DEE94005024A3E0FBA3E0FA06
:1001DC00A3E0F98F828E83120261FD741F2FF582CA
:1001EC0074003EF583EDF00FBF00010E80CF900040
:1001FC000CE0FFA3E0FBA3E0FAA3E0F91203969056
:10020C00000CE0FE241FF582E43400F583EFF0745B
:10021C00202EF582E43400F58374F5F0EE2403FF10
:10022C00E433900010F0A3EFF0E4900026F0AD075B
:0C023C00A3EDF07B017A00791E0203F3B1
:0500260090000AEFF05C
:10002B00E4A3F012050DEF70030200E7E490002942
:10003B00F0900026E06004E4F080030200E79000FB
:10004B0016E064F560030200E790000AE0FF900001
:10005B0017E06F60030200E7900027E024FDFF7BB1
:10006B00017A00791712039690001CE06F600280F2
:10007B006B90000AE01424FD5012602714602424B6
:10008B00FC602D24FE601C146032805090001AE03E
:10009B00FF70028014EF640770427FDC7E05120351
:1000AB00D3803990001AE0703390000B04F0802C51
:1000BB0090001AE0702690000B04801790001AE055
:1000CB00FF64016009EF64026004EFB4030E90005B
:1000DB000B7401F0900019E0900028F090000BE0F9
:0100EB00FF15
:0100EC0022F1
:1004D900900002740CF0E4A3F0A3F0A3F0A3F07B66
:0A04E900017A0079027F050201AEDE
:1004F3009000027405F0E4A3F0A3F0A3F0A3F07B53
:0A050300017A0079027F050201AEC3
:04000300AD07AC0693
:100007009000027404F0ECA3F0EFA3F0E4A3F0A3D4
:0C001700F07B017A0079027F050201AE47
:04047E00AD07AC0614
:1004820090002A740BF0ECA3F0EFA3F0E4A3F0A326
:0C049200F07B017A00792A7F050201AEA0
:04041800AD07AC067A
:10041C009000047401F0ECA3F0EFA3F0A37401F0CE
:0E042C00E4A3F07B017A0079047F050201AEA3
:04043A00AD07AC0658
:10043E009000047402F0ECA3F0EFA3F0A37401F0AB
:0E044E00E4A3F07B017A0079047F050201AE81
:04045C00AD07AC0636
:100460009000047403F0ECA3F0EFA3F0A37401F088
:0E047000E4A3F07B017A0079047F050201AE5F
:1002A400900002EEF0A3EFF01204187F0112002672
:1002B400EF7002FF227F647E001203D3900002E0FD
:1002C400FEA3E0FF12043A7F02120026EF7002FF41
:1002D400227F647E001203D3900002E0FEA3E0FFBD
:0902E40012045C7F0312002622C3
:090532001204F37F0512002622D9
:09053B001200037F0412002622C5
:10049E009000027409F0E4A3F0A3F0A3F0A3F07BA4
:0F04AE00017A0079027F051201AE7F0912002644
:0104BD00221C
:090544001204D97F0C12002622DA
:10036300EF24FE601314601724027026C282D28326
:10037300B2EA7FC87E0080151203C8B2EA800ED2AB
:1003830082C2831203C8B2EA1203CEB2EA1203D3C3
:02039300B2EACC
:010395002245
:0500ED00900000EFF09F
:1000F20024FE603514606514607C14700302019262
:10010200240460030201ADE4900000F0A3E004FFC8
:10011200F07E001202A4EF60047F0180027F0312CE
:1001220003637FD07E070201AAE4900000F012056B
:1001320044EF60077F0212036380057F03020363BB
:10014200900028E0FF7E0012053BEF60047F0180F3
:10015200027F031203637FE87E03804CE490000079
:10016200F0120544EF60047F0180027F03120363F3
:100172007FE87E038032E4900000F012049EEF607C
:10018200047F0180027F031203637FE87E038018ED
:10019200E4900000F0120532EF60047F0180027FDC
:0B01A200031203637FE87E031203D307
:0101AD00222F
:1002ED00D280D281D282D283C291C2EA1204BE7F61
:1002FD0002120363D282D28320800F3080FD7F02F1
:10030D001203637F031200ED80EA2081E73081FD47
:0C031D007F021203637F011200ED80D804
:10024800BB010689828A83E0225002E722BBFE02B4
:09025800E32289828A83E49322E7
:10026100BB010CE58229F582E5833AF583E0225052
:1002710006E92582F8E622BBFE06E92582F8E2229C
:0D028100E58229F582E5833AF583E49322B6
:10028E00A3F8E0C5F025F0F0E58215827002158323
:06029E00E0C838F0E82280
:00000001FF
