:030000000204AA4D
:0C04AA00787FE4F6D8FD7581620202A4A0
:100161002020202020202020202020202020203A74
:1001710020202D202D202D20202D202D202D202030
:100181002020202045696E737465696E202020202F
:100191002D2D2D2D2D2D2D2D2D2D2D2D2D2D2D2D8E
:1001A100004320202020202020202020202020204B
:1001B1003A20202D202D202D20202D202D202D20D6
:1001C100202020202045696E737465696E202020EF
:1001D100202D2D2D2D2D2D2D2D2D2D2D2D2D2D2D5B
:1001E1002D003236323632360020202020202000E9
:10041C00D294C2937D30E4FF1201F77D01E4FF1208
:10042C0001F77F647E001204CE7D06E4FF1201F713
:07043C007D0CE4FF0201F753
:100485007D30E4FF1201F77D01E4FF1201F77FB42F
:050495007E000204CE10
:0B04CE00EF1FAC0670011E4C70F62200
:0403C8008E1F8F20D5
:1003CC00E4FBFAC3EB9520EA951F501A9000007FCE
:1003DC00017E001204CEA3E582640F458370F00BFE
:0603EC00BB00010A80DDE8
:0103F20022E8
:060387008B5A8A5B895CC1
:10038D001204857D80E4FF1201F7E4F55EE4F55D6E
:10039D00AB5AAA5BA95C75F010E55EA4255DF582EC
:1003AD00E435F0F5831201F1055DE55DC394104070
:0A03BD00DF055EE55EC3940440D343
:0103C7002213
:0803F3008B5F8A608961AD0790
:1003FB00E4FF1201F7E4F562AB5FAA60A9618562C5
:10040B00827583001201F10562E562C3941040E826
:01041B0022BE
:0601F100120112FD7F0166
:0201F700AB0754
:1001F9007F327E001204CED290C292D291E4FFD215
:1002090092C2920FBF05F8C291D292C292EB6004DA
:10021900D2918002C291D292C292C291D292C292DA
:10022900E4FEE4FFED25E0FD9291D292C2920FBF68
:1002390004F2C291E4FFD292C2920FBF04F80EBE3B
:0202490002E0D1
:01024B002290
:06024C008B168A178918C9
:1002520078197C007D007BFF7A0179A27E007F41C4
:100262001200D3120485AB16AA17A9181200F9F5C9
:100272002B900001120112F52D900002120112F5CD
:100282002F900003120112F532900004120112F5B0
:1002920034900005120112F5367B007A00791902BA
:0202A2000387D0
:0504D9001204DED296C2
:0504DE000000000022F7
:0C04B600D297D2961204DEC2970204DE38
:0C04C200C297D2961204DED2970204DE2C
:08049A001204B67FA0120466F3
:0804A200C2971204D9C2962290
:0804E300D2971204D9C296223F
:100466007E08AD07C2961204DEED30E704D297800F
:0E04760002C297D296EF25E0FDFFDEE6C296A9
:010484002255
:10044300E4FFFE7D08D297C2961204D93097054384
:10045300070180035307FEED146005EF25E0FEFF5F
:02046300DDE5D5
:010465002274
:020342008D1913
:100344008B1C8A1D891EE4F51BE51BC3951A5032CC
:1003540012049AE519251BFF1204661204A2AB1CB1
:10036400AA1DA91E851B82758300120112FF1204A7
:10037400661204A21204C27F147E001203C8051B75
:0203840080C730
:010386002254
:0202FC008D195A
:1002FE008B1B8A1C891DE4FCECC3951A5035120425
:10030E009AE5192CFF1204661204A21204B67FA1FC
:10031E001204661204A2120443AB1BAA1CA91D8C64
:10032E0082758300EF12013FC2961204E31204C2DB
:03033E000C80C56B
:010341002299
:1002A40078087C007D007BFF7A0179E37E007F077C
:1002B4001200D3780F7C007D007BFF7A0179EA7EFF
:1002C400007F071200D375815F12041C7B007A0043
:1002D4007908751A06E4FD1203427B007A00790F4F
:1002E400751A06E4FD1202FC7B007A00790F1202F3
:0802F4004C7FB87E0B0203C829
:10000300E709F608DFFA8046E709F208DFFA803EDF
:1000130088828C83E709F0A3DFFA8032E309F608CC
:10002300DFFA8078E309F208DFFA807088828C8334
:10003300E309F0A3DFFA806489828A83E0A3F608E8
:10004300DFFA805889828A83E0A3F208DFFA804CC2
:1000530080D280FA80C680D4806980F28033801099
:1000630080A680EA809A80A880DA80E280CA803302
:1000730089828A83ECFAE493A3C8C582C8CCC5837A
:10008300CCF0A3C8C582C8CCC583CCDFE9DEE7804A
:100093000D89828A83E493A3F608DFF9ECFAA9F0C9
:1000A300EDFB2289828A83ECFAE0A3C8C582C8CC1F
:1000B300C583CCF0A3C8C582C8CCC583CCDFEADE38
:1000C300E880DB89828A83E493A3F208DFF980CC9A
:1000D30088F0EF60010E4E60C388F0ED2402B40493
:1000E3000050B9F582EB2402B4040050AF2323453A
:0600F3008223900053730C
:1000F900BB010689828A83E0225002E722BBFE0205
:09010900E32289828A83E4932237
:10011200BB010CE58229F582E5833AF583E02250A2
:1001220006E92582F8E622BBFE06E92582F8E222EC
:0D013200E58229F582E5833AF583E4932206
:10013F00F8BB010DE58229F582E5833AF583E8F0F6
:10014F00225006E92582C8F622BBFE05E92582C8A2
:02015F00F2228A
:00000001FF
