:03000000020EBB32
:0C0EBB00787FE4F6D8FD75816B020F0211
:100563004552524F52000D0A00536176655F446154
:1005730074612E6C61746974756465203D20005349
:100583006176655F446174612E6C6F6E6769747523
:100593006465203D20004750532044415441206965
:1005A30073206E6F742075736566756C6C210D0A0C
:1005B300002A2A2A2A2A2A2A2A2A2A2A2A2A2A0DDF
:1005C3000A002C004D656E7520202020202020205D
:1005D3002020202000313A526573657420413A4649
:1005E300696E67657200323A416C74657220423AF3
:1005F3004750532020200020202020433A52654CAE
:100603006F636B202020200046696E67657220208F
:1006130020202020202020200020202020313A5399
:1006230063616E2020202020200020202020323AE9
:10063300496E707574202020202000202020204344
:100643003A43616E63656C2020202000475053209D
:1006530020202020202020202020202000202031A6
:100663003A43757272656E74475053202000202000
:10067300323A53657443757272656E74202000209C
:1006830020433A43616E63656C20202020202000C4
:1006930020202020303030303030303020202020D7
:1006A30000202020203131313131313131202020DF
:1006B30020002020202057656C636F6D653A202051
:1006C3002020002020202045696E737465696E2008
:1006D30020202000205265736574202053756363C6
:1006E30065737320002020322036203220203620EC
:1006F300322036202000204368616E6765205375E1
:100703006363657373200020202020203030303055
:100713004131202020202000202020202030303094
:100723003041322020202020002020202020303083
:100733003030423220202020200050617373776FC5
:100743007264202057726F6E672100536561726374
:1007530068696E67204750532E2E2E000D0A53757D
:10076300636365737321004C6F636174696F6E20FB
:100773002057726F6E672100FEFDFBF74920202092
:1007830020202020202020202020203A20202D203F
:100793002D202D20202D202D202D20202020202015
:1007A30045696E737465696E202020202D2D2D2DD3
:1007B3002D2D2D2D2D2D2D2D2D2D2D2D0049202091
:1007C3002020202020202020202020203A20202DFF
:1007D300202D202D20202D202D202D2020202020D5
:1007E3002045696E737465696E202020202D2D2DA0
:1007F3002D2D2D2D2D2D2D2D2D2D2D2D2D0043204A
:10080300202020202020202020202020203A2020CB
:100813002D202D202D20202D202D202D2020202087
:10082300202045696E737465696E202020202D2D6C
:100833002D2D2D2D2D2D2D2D2D2D2D2D2D2D004CF3
:10084300617469747564653A202020202020204C4F
:100853006F6E6769747564653A202020202020201C
:100863002020202020202020202020202020202085
:100873002020202020202020202020202020200095
:1008830030003236323632363236002D2D2D2D2DB4
:020893002D0036
:1013FD0041000300410001004100020041000000D6
:10140D004A007A333631342E33393438004B0004E8
:0B141D0031323032362E3339313100CD
:0B157400EF1FAC0670011E4C70F62249
:06128000C2907FC87E0051
:081286009000A9EEF0A3EFF0C7
:10128E00E4A3F0A3F09000A9E0FEA3E0FFC390005A
:10129E00ACE09F9000ABE09E5025E4FBFA7F017E10
:1012AE00001215740BBB00010AEB640F4A70EE902E
:0F12BE0000ACE004F070CE9000ABE004F080C60E
:0112CD0022FE
:0615A400121280D2902219
:10153A00121280D2907F787E00121286121280D206
:02154A009022ED
:1011CC0075A0F0E5A054F064F060497F0A7E00122F
:1011DC001286E5A054F064F0603AE5A064F0F9E4FE
:1011EC00FF8016EFC394045018E5A054F064F0602F
:1011FC0006E5A0F4FD800A0FEF90077B93F5A08025
:10120C00E2E5A054F0FFBFF0F81215A4E94DFF90F1
:0A121C000003F022E4900003F0FF4D
:0112260022A5
:100D4F00EF120A1F0D87110DA7120DC7140DE7180B
:100D5F000D8F210DAF220DCF240DEF280D97410DD3
:100D6F00B7420DD7440DF7480D9F810DBF820DDFA0
:100D7F00840DFF8800000E059000A07431F080767E
:100D8F009000A07432F0806E9000A07433F08066F3
:100D9F009000A07441F0805E9000A07434F08056F3
:100DAF009000A07435F0804E9000A07436F080460D
:100DBF009000A07442F0803E9000A07437F080360F
:100DCF009000A07438F0802E9000A07439F0802627
:100DDF009000A07443F0801E9000A0742AF080163B
:100DEF009000A07430F0800E9000A07423F0800665
:0B0DFF009000A07444F09000A0E0FF02
:010E0A0022C5
:05157F00121584D29456
:05158400000000002240
:0C155C00D295D294121584C29502158419
:0C156800C295D294121584D2950215840D
:08154C0012155C7FA01214EAE5
:08155400C29512157FC294221A
:08159C00D29512157FC29422C2
:1014EA007E08AD07C294121584ED30E704D29580C8
:0E14FA0002C295D294EF25E0FDFFDEE6C2941B
:0115080022C0
:1014A600E4FFFE7D08D295C29412157FEF309505B4
:1014B6004401FF800354FEFFED146005EF25E0FEB6
:0314C600FFDDE463
:0114C9002200
:0E0FD3007B017A00798A9000A47406F07D01FB
:050FE1009000A3EDF0FB
:100FE6009000A6EBF0A3EAF0A3E9F0E49000A5F0E8
:100FF6009000A4E0FFA3E0C39F504112154CE0FF10
:101006009000A3E02FFF1214EA1215549000A6E0F8
:10101600FBA3E0FAA3E0F99000A5E0F58275830052
:101026001209A4FF1214EA1215541215687F147ED1
:0C103600001212869000A5E004F080B4C7
:01104200228B
:051227009000A3EDF0B2
:10122C009000A5EBF0A3EAF0A3E9F0E4FC9000A495
:10123C00E0FFECC39F503C12154C9000A3E02CFF38
:10124C001214EA12155412155C7FA11214EA12152D
:10125C00541214A69000A5E0FBA3E0FAA3E0F98CCD
:10126C0082758300EF1209D1C29412159C12156875
:03127C000C80BA29
:01127F00224C
:10152200759850D29CE4F587758920758DFD758B71
:08153200FDD28ED2AFD2AC2233
:09159300C29CC28EC2ACC2AF22A0
:06135A007BFF7A057969B2
:1013600090008DEBF0A3EAF0A3E9F090008DE0FB94
:10137000A3E0FAA3E0F912098B601A90008DA3E4B0
:1013800075F001120A09A9F0FA12098BF599309942
:06139000FDC29980D62287
:0A158900C2998F993099FDC2992292
:03002300020BCB02
:0D0BCB00C0E0C0F0C083C082C0D075D0185B
:100BD800E49000E9F0C2ACAF99C298EFB424059054
:100BE8000001E4F0900001E0D39405500DE0FE040C
:100BF800F074202EF8A61F020C837824E6B44D0466
:100C08007E0180027E007820E6B424047D01800203
:100C18007D00ED5E60657825E66443705E900001B6
:100C2800E0FE04F074202EF8A61FEF640A703AFE66
:100C38007F50FD7B017A00790F120A45900001E090
:100C4800FF7E00780F7C007D017B007A00792012FE
:100C5800096590005F7401F0900001E4F0FE7F4C9C
:100C6800FDFB7A007920120A45900001E0C3944BFD
:0D0C78004009744BF0E02420F87600D2AC67
:0B0C8500D0D0D082D083D0F0D0E0327D
:10139600E490005FF0A3F0900078F0A3F0FE7F5099
:1013A600FD7B017A00790F120A457E007F0B7D00D6
:1013B6007B017A007961120A457E007F0C7D007BF5
:0813C600017A00796C020A456E
:10000300E4FDFCC3ED9FEC9E5015E4FBFA0BBB0033
:0F001300010AEB647B4A70F50DBD00010C80E41F
:0100220022BB
:10150900AD07AC067BFF7A057963121360ED2430D1
:09151900FF12158912135A80EB30
:1012CE00900060E06044E4F0900078E06033E4F079
:1012DE007BFF7A05796C1213607B017A00796112BB
:1012EE00136012135A7BFF7A0579821213607B0109
:1012FE007A00796C12136012135A9000797401F00F
:0B130E00227BFF7A0579991213602200
:100A7100E490008AF090005FE07003020BCAE4F09A
:100A81007BFF7A0579B41213607B017A00790F122A
:100A91001360E490008AF090008AE0FFD3648094B0
:100AA100864003020BCAEF702F90009074FFF0A3F1
:100AB1007405F0A374C5F07B017A00790F120C90D4
:100AC100900084EBF0A3EAF0A3E9F04A4B60030243
:100AD1000BC17F01FE020BBE900085E475F001128F
:100AE10009F390009074FFF0A37405F0A374C5F0AE
:100AF100900084E0FBA3E0FAA3E0F9120C909000CF
:100B010087EBF0A3EAF0A3E9F04A4B7003020BBABA
:100B1100A3E024FD602524FE603E2403706590005F
:100B210084A3E0FAA3E0AE02FFA3A3E0FAA3E0C32B
:100B31009FFFEA9EFE788B7C008038900084A3E0C2
:100B4100FAA3E0AE02FFA3A3E0FAA3E0C39FFFEA8A
:100B51009EFE78617C00801B900084A3E0FAA3E0F4
:100B6100AE02FFA3A3E0FAA3E0C39FFFEA9EFE78D3
:100B71006C7C007D01900084E0FBA3E0FAA3E0F926
:100B8100120965900087E0F9A3E0FAA3E0900084E0
:100B9100C9F0A3EAF0A3E9F09000607401F09000BD
:100BA1008BE0FFB441089000787401F08012EFB43B
:070BB100560EE4900078F0FD
:100BB80080077F027E0012150990008AE004F00287
:020BC8000A9889
:010BCA002208
:10147F00D281C2807D30E4FF1211157D01E4FF128D
:10148F0011157F647E001215747D06E4FF1211158D
:07149F007D0CE4FF021115B2
:0B14CA007D017BFF7E007F4112096561
:1014D5007D30E4FF1211157D01E4FF1211157FB473
:0514E5007E00021574F9
:0B1170009000E4EBF0A3EAF0A3E9F02C
:10117B001214D57D80E4FF121115E49000E8F0E421
:10118B009000E7F09000E7E0FFC39410502690002A
:10119B00E4E0FBA3E0FAA3E0F99000E8E075F010BF
:1011AB00A42FF582E435F0F58312110F9000E7E0E0
:1011BB0004F080D09000E8E004F0E0C3940440BF5A
:0111CB002201
:041319007BFF7F9047
:0B131D009000A0EBF0A3EAF0A3E9F0C1
:10132800AD07E4FF121115E49000A3F09000A3E0CC
:10133800FFC39410501B9000A0E0FBA3E0FAA3E0C9
:10134800F98F8275830012110F9000A3E004F080DA
:01135800DBB9
:011359002271
:06110F001209A4FD7F019E
:02111500AB0726
:101117007F327E00121574AF05D291C293D292E44A
:10112700FED293C2930EEEB405F7C292D293C29346
:10113700EB6004D2928002C292D293C293C292D23F
:1011470093C293E4FDE4FEEF25E0FF9292D293C2AF
:10115700930EEEB404F1C292E4FED293C2930EEE64
:08116700B404F70DEDB402DD44
:01116F00225D
:061043007B017A007993A5
:0B1049009000A0EBF0A3EAF0A3E9F098
:1010540078A37C007A0779C01214CA9000A0E0FB40
:10106400A3E0FAA3E0F912098B9000B5F090000117
:101074001209A49000B7F09000021209A49000B9DC
:10108400F09000031209A49000BCF090000412092F
:10109400A49000BEF09000051209A49000C0F07B5B
:0810A400017A0079A30211702A
:0B10AC009000A0EBF0A3EAF0A3E9F035
:1010B70078A37C007A0879011214CA9000A0E0FB9B
:1010C700A3E0FAA3E0F912098B9000B5F0900001B4
:1010D7001209A49000B7F09000021209A49000B979
:1010E700F09000031209A49000BCF09000041209CC
:1010F700A49000BEF09000051209A49000C0F07BF8
:08110700017A0079A3021170C6
:101429001214D57BFF7A0579C77F8012131D7A05BF
:1014390079D81213197BFF7A0579E97F8812131D70
:0B1449007BFF7A0579FA7F9802131DE3
:101454001214D57BFF7A06790B7F8012131D7A064E
:10146400791C1213197BFF7A06792D7F8812131DBC
:0B1474007BFF7A06793E7F9802131D73
:1013CE001214D57BFF7A06794F7F8012131D7BFF97
:1013DE007A0679607F9012131D7BFF7A0679717FF2
:0F13EE008812131D7BFF7A0679827F9802131DE8
:100E0B0078A07C007D017BFF7A0879421214CE908A
:100E1B000061E09000C7F0900062E09000C8F09095
:100E2B000063E09000C9F0900064E09000CAF0907D
:100E3B000065E09000CBF0900066E09000CCF09065
:100E4B000067E09000CDF0900068E09000CEF0904D
:100E5B000069E09000CFF090006CE09000D6F0902D
:100E6B00006DE09000D7F090006EE09000D8F0900D
:100E7B00006FE09000D9F0900070E09000DAF090F5
:100E8B000071E09000DBF0900072E09000DCF090DD
:100E9B000073E09000DDF0900074E09000DEF090C5
:100EAB000075E09000DFF07B017A0079A0021170F1
:10002600E4900084F0A3F078887C007D017BFF7A61
:10003600087983FE7F02120965788A7C007D017B40
:10004600FF7A0879857E007F0912096578937C001E
:100056007D017BFF7A08798E7E007F07120965E4B1
:1000660090009AF0A3F0A3F0A3F0A3F0A3F07B0115
:100076007A0079889000A404F0E4FD12122790001B
:1000860088E0643160227431F07B017A00798890CF
:1000960000A47401F0E4FD120FE1120FD31214D57F
:1000A6007BFF7A067993801A7B017A00798A900021
:1000B600A47406F07D011212271214D57BFF7A066E
:1000C60079A47F9012131D7FE87E031212867BFFB0
:1000D6007A07797F1211701211CCEF60FAC3900083
:1000E60085E09406900084E09400506B900003E055
:1000F600FF64116036EF64216031EF6441602CEFDC
:1001060064126027EF64226022EF6442601DEF6490
:10011600146018EF64246013EF6444600EEF6418F3
:100126006009EF64286004EFB4482C120D4F90006C
:1001360084E0FCA3E02493F58274003CF583EFF0A1
:10014600900003E0F580900085E004F070069000D2
:1001560084E004F002050A900003E064886003026C
:100166000510900084E07004A3E0640660030205B5
:100176001090009AF0A304F0E4900086F0A3F090AB
:100186000084E0FEA3E0FFA3E0FCA3E0FDC39FEC38
:100196009E5031748A2DF58274003CF583E0FF741D
:1001A600932DF58274003CF583E06F6007E49000C0
:1001B6009AF0A3F0900087E004F070C3900086E008
:1001C60004F080BB90009AE07002A3E07003020482
:1001D600B4E4900086F0A3F0900086E0FEA3E0FF72
:1001E600C39406EE9400501D74932FF58274003E5E
:1001F600F583742DF0900087E004F070DB900086A4
:10020600E004F080D3E4900084F0A3F01214D57BD0
:10021600FF7A0679B57F9012131D7BFF7A0679C6A1
:100226007F8812131D1215A4C296D2977FB87E0B33
:100236000203CD1211CC900003E0641160030202A8
:10024600FA90009CE07002A3E060030202EA9000CC
:1002560086F0A3F0900086E0FEA3E0FFC39406EECE
:100266009400501D748A2FF58274003EF583743213
:10027600F0900087E02402F0900086E03400F080E1
:10028600D3900086E4F0A304F0900086E0FEA3E09D
:10029600FFC39406EE9400501D748A2FF5827400F5
:1002A6003EF5837436F0900087E02402F0900086D5
:1002B600E03400F080D3120FD31214D57BFF7A06F8
:1002C60079D77F9012131D7BFF7A0679E87F881213
:1002D600131D90009CE4F0A304F01215A47F887E01
:1002E600130203CD90009CE07002A3E070030202AB
:1002F60039020417900003E06421600302041A9097
:10030600009CF0A3F002038E1211CC900003E0FFD4
:1003160064116037EF64216032EF6441602DEF6451
:10032600126028EF64226023EF6442601EEF6414BB
:100336006019EF64246014EF6444600FEF64186082
:100346000AEF64286005EF64487049120D4F90006B
:100356009EE0FCA3E0248AF58274003CF583EFF06E
:10036600900003E0FF120D4F90009EE0FCA3E024F6
:1003760093F58274003CF583EFF090009FE004F063
:10038600700690009EE004F07B017A0079931210CB
:10039600AC02030E900003E06488703190009EE08A
:1003A6007004A3E064067025120FD3E490009EF05B
:1003B600A3F01214D57BFF7A0679F97F9012131DEC
:1003C6001215A47FD07E071212860204A1900003A4
:1003D600E06484600302030E90009EF0A3F0900098
:1003E60086F0A3F0900086E0FEA3E0FFC39406EE3D
:1003F6009400501D74932FF58274003EF583742D7E
:10040600F0900087E004F070DB900086E004F08056
:10041600D30204A1900003E06481703F12145412C9
:1004260011CC900003E0B4110B1214D57BFF7A07B0
:10043600790A8010900003E0B421171214D57BFFCF
:100446007A07791B7F9012131D7FD07E07121286C2
:1004560080CD900003E0B484C68040900003E06441
:1004660082703E1213CE1211CC900003E0B4110636
:100476001214D5120E0B900003E0B421171214D5F6
:100486007BFF7A07792C7F9012131D7FD07E07128F
:10049600128680D2900003E0B484CB1214290202A3
:1004A60039900003E0648460030202398067121405
:1004B600D57BFF7A07793D7F9012131D12153A7F7F
:1004C600B87E0B121286E4900086F0A3F0900086A8
:1004D600E0FEA3E0FFC39406EE9400501D74932F34
:1004E600F58274003EF583742DF0900087E004F0E9
:1004F60070DB900086E004F080D3E4900084F0A3E3
:10050600F01214D51210430200DD900003E064845B
:1005160060030200DDE4900086F0A3F0900086E020
:10052600FEA3E0FFC39406EE9400501D74932FF5CE
:100536008274003EF583742DF0900087E004F0701D
:10054600DB900086E004F080D3E4900084F0A3F012
:0D0556001214D5121043D296C2970200DD98
:100F47001215227F0A7E0012000312139612147FD5
:100F5700D296C2971214D57BFF7A07794E7F9012EB
:100F6700131D120A711212CE900079E060F47BFF14
:100F77007A07795F121360121593900066E0FF33CA
:100F870095E0FE90007FE0C39FFFE49EFED3EF94C1
:100F970001EE64809480501E900072E0FF3395E06C
:100FA700FE90000AE0C39FFFE49EFED3EF9401EE9C
:100FB7006480948040127BFF7A07796A7F901213CE
:0C0FC7001D7FB87E0B021286120026224D
:100EC700020F47E493A3F8E493A34003F68001F2EB
:100ED70008DFF48029E493A3F85407240CC8C3332C
:100EE700C4540F4420C8834004F456800146F6DFFB
:100EF700E4800B01020408102040809013FDE47E7B
:100F0700019360BCA3FF543F30E509541FFEE493EF
:100F1700A360010ECF54C025E060A840B8E493A3B6
:100F2700FAE493A3F8E493A3C8C582C8CAC583CAE1
:100F3700F0A3C8C582C8CAC583CADFE9DEE780BE99
:0114280000C3
:10089500E709F608DFFA8046E709F208DFFA803E45
:1008A50088828C83E709F0A3DFFA8032E309F60832
:1008B500DFFA8078E309F208DFFA807088828C839A
:1008C500E309F0A3DFFA806489828A83E0A3F6084E
:1008D500DFFA805889828A83E0A3F208DFFA804C28
:1008E50080D280FA80C680D4806980F280338010FF
:1008F50080A680EA809A80A880DA80E280CA803368
:1009050089828A83ECFAE493A3C8C582C8CCC583DF
:10091500CCF0A3C8C582C8CCC583CCDFE9DEE780AF
:100925000D89828A83E493A3F608DFF9ECFAA9F02E
:10093500EDFB2289828A83ECFAE0A3C8C582C8CC84
:10094500C583CCF0A3C8C582C8CCC583CCDFEADE9D
:10095500E880DB89828A83E493A3F208DFF980CCFF
:1009650088F0EF60010E4E60C388F0ED2402B404F8
:100975000050B9F582EB2402B4040050AF2323459F
:0609850082239008E573D7
:10098B00BB010689828A83E0225002E722BBFE026A
:09099B00E32289828A83E493229D
:1009A400BB010CE58229F582E5833AF583E0225008
:1009B40006E92582F8E622BBFE06E92582F8E22252
:0D09C400E58229F582E5833AF583E493226C
:1009D100F8BB010DE58229F582E5833AF583E8F05C
:1009E100225006E92582C8F622BBFE05E92582C808
:0209F100F222F0
:1009F300C5F0F8A3E028F0C5F0F8E582158270028F
:060A03001583E038F0222B
:100A0900A3F8E0C5F025F0F0E582158270021583A0
:060A1900E0C838F0E822FD
:100A1F00D083D082F8E4937012740193700DA3A366
:100A2F0093F8740193F5828883E47374029368607A
:060A3F00EFA3A3A380DF7A
:100C900090008DEBF0A3EAF0A3E9F0A3E0FBA3E062
:100CA000FAA3E0F912098B7003020D3C90008DE06D
:100CB000FBA3E0FAA3E0F912098B7003020D489040
:100CC0000090E0F9A3E0FAA3E0A3C9F0A3EAF0A33F
:100CD000E9F090008DA3E0FAA3E0F9900096EBF024
:100CE000A3EAF0A3E9F0900093E0FBA3E0FAA3E00D
:100CF000F912098BFF6026900096E0FBA3E0FAA3AF
:100D0000E0F912098B6F701590009475F0011209CB
:100D1000F3900097E475F0011209F380C9900093F5
:100D2000E0FBA3E0FAA3E0F912098B7002800D90BA
:100D3000008EE475F0011209F3020CAC90008DE016
:0F0D4000FBA3E0FAA3E0F9227B007A00790022FE
:100A4500EF4E6012EF60010EEDBB010B89828A83C8
:100A5500F0A3DFFCDEFA2289F05007F709DFFCA9D5
:0C0A6500F022BBFEFCF309DFFCA9F0222C
:00000001FF
