:0300000002008477
:0C008400787FE4F6D8FD75810902003495
:0B009000EF1FAC0670011E4C70F62242
:06000300C2957FC87E00DB
:040009008E088F09C5
:10000D00E4FBFAC3EB9509EA9508501A9000007FBE
:10001D00017E00120090A3E582640F458370F00B02
:06002D00BB00010A80DDAA
:0100330022AA
:06009B00120003D29522C1
:10007200120003D2957F787E00120009120003D28B
:020082009522C5
:10005400120003D2957F787E00120009120003D2A9
:0E006400957F787E00120009120003D29522CB
:1000340012009B7FA07E0F1200091200727FA07E27
:100044000F1200091200547FA07E0F12000980E0F5
:00000001FF
