:0300000002047285
:0C047200787FE4F6D8FD75811F0204B904
:100026004D656E75202020202020202020202020B5
:1000360000313A526573657420413A46696E6765C8
:100046007200323A416C74657220423A475053202E
:1000560020200020202020433A52654C6F636B20FD
:100066002020200046696E6765722020202020200F
:10007600202020200020202020313A5363616E206A
:1000860020202020200020202020323A496E707542
:100096007420202020200020202020433A43616E37
:1000A60063656C202020200047505320202020200C
:1000B6002020202020202020002020313A43757265
:1000C60072656E744750532020002020323A5365E3
:1000D6007443757272656E742020002020433A4383
:1000E600616E63656C2020202020200062656769B0
:1000F6006E476574446174612E2E0D0A0069735251
:1001060069676874446174612E2E0D0A0047657430
:10011600412E2E0D0A002D2D2D2D2D2D2D2D2D2D63
:10012600476574452E2E0D0A002A2A2A2A2A2A2ACB
:100136002A2A2A2A2A2A2A0D0A0049202020202093
:100146002020202020202020203A20202D202D2075
:100156002D20202D202D202D2020202020204569F7
:100166006E737465696E202020202D2D2D2D2D2D6A
:100176002D2D2D2D2D2D2D2D2D2D004920202020EE
:10018600202020202020202020203A20202D202D35
:10019600202D20202D202D202D2020202020204500
:1001A600696E737465696E202020202D2D2D2D2DEE
:1001B6002D2D2D2D2D2D2D2D2D2D2D0043202020A7
:1001C60020202020202020202020203A20202D2002
:1001D6002D202D20202D202D202D202020202020D8
:1001E60045696E737465696E202020202D2D2D2D96
:0D01F6002D2D2D2D2D2D2D2D2D2D2D2D00E0
:10080700819800819B00819E00819700819D0081D6
:0E0817009C00819A00819600819900819530A5
:0B087400EF1FAC0670011E4C70F62256
:070665007800EEF208EFF24D
:10066C00E408F208F27800E2FE08E2FFC37803E245
:10067C009F18E29E5022E4FBFA7F017E0012087460
:10068C000BBB00010AEB640F4A70EE7803E2240105
:08069C00F218E23400F280CDF7
:0106A4002233
:10079D00D281C2807D30E4FF1205047D01E4FF1299
:1007AD0005047F647E001208747D06E4FF120504C3
:0707BD007D0CE4FF020504BE
:0C07E600087DFE7BFF7E007F411202D3E5
:1007F2007D30E4FF1205047D01E4FF1205047FB49D
:050802007E00020874F5
:0A0611007804EBF208EAF208E9F2BF
:10061B001207F27D80E4FF120504E47808F2E47817
:10062B0007F27807E2FFC3941050237804E2FB082B
:10063B00E2FA08E2F97808E275F010A42FF582E4EB
:10064B0035F0F5831204FE7807E204F280D47808C3
:09065B00E204F2E2C3940440C57C
:010664002273
:0406A5007BFF7F80D8
:0A06A9007809EBF208EAF208E9F222
:1006B300AD07E4FF120504E4780CF2780CE2FFC303
:1006C300941050197809E2FB08E2FA08E2F98F82E4
:0D06D3007583001204FE780CE204F280DE54
:0106E00022F7
:0604FE00120312FD7F0154
:02050400AB0743
:100506007F327E00120874AF05D291C293D292E474
:10051600FED293C2930EEEB405F7C292D293C29363
:10052600EB6004D2928002C292D293C293C292D25C
:1005360093C293E4FDE4FEEF25E0FF9292D293C2CC
:10054600930EEEB404F1C292E4FED293C2930EEE81
:08055600B404F70DEDB402DD61
:01055E00227A
:0A055F00780DEBF208EAF208E9F269
:100569007C007A0179811207E6780DE2FB08E2FA4C
:1005790008E2F91202F97822F290000112031278C6
:1005890024F29000021203127826F290000312035B
:10059900127829F2900004120312782BF2900005C8
:0F05A900120312782DF27BFE7A007910020611F0
:0A05B8007851EBF208EAF208E9F2CC
:1005C2007C007A0179C21207E67851E2FB08E2FA6E
:1005D20008E2F91202F97866F29000011203127829
:1005E20068F2900002120312786AF290000312037A
:1005F20012786DF2900004120312786FF2900005E7
:0F0602001203127871F27BFE7A0079540206110E
:100747001207F27A0079261206A57BFF7A0079371D
:100757007F901206A97BFF7A0079487F881206A945
:0B0767007BFF7A0079597F980206A9F9
:100772001207F27A00796A1206A57BFF7A00797B6A
:100782007F901206A97BFF7A00798C7F881206A9D6
:0B0792007BFF7A00799D7F980206A98A
:100718001207F27BFF7A0079AE7F801206A97BFF71
:100728007A0079BF7F901206A97BFF7A0079D07F83
:0F073800881206A97BFF7A0079E17F980206A953
:10085C00759850D29CE4F587758920758DFD758B44
:08086C00FDD28ED2AFD2AC2206
:1006E10078A3EBF208EAF208E9F278A3E2FB08E268
:1006F100FA08E2F91202F9601D78A3E2FB0808E2A8
:10070100F92401F218E2FA3400F21202F9F59930F3
:0707110099FDC29980D4227A
:0A087F00C2998F993099FDC29922A9
:10082600E4789EF27897F2789DF218F2789AF2FEC2
:0C0836007F1DFD7BFE7A00799802033FD5
:10000300E4FDFCC3ED9FEC9E5015E4FBFA0BBB0033
:0F001300010AEB647B4A70F50DBD00010C80E41F
:0100220022BB
:0300230002036B6A
:0D036B00C0E0C0F0C083C082C0D075D018C3
:1003780078A2E4F2C2ACE599F2C298E26424701F54
:100388007897E2701A04F27E007F1D7D007BFE7A6A
:1003980000799812033F7BFF7A0079F21206E17820
:1003A800A2E2B44D137897E2600E789D7401F27B57
:1003B800FF7A0179031206E178A2E2B44122789D1E
:1003C800E2601D7BFF7A0179131206E17896E4F268
:1003D80078A2E2FF7896E2FE04F274982EF8EFF223
:1003E8007898E26441707678A2E2FF7896E2FE247B
:1003F80098F8EFF274982EF8E26445705B7BFF7A08
:1004080001791C1206E17896E2FF7E007D007BFEF2
:100418007A00799B12033F7896E2FF7E00789B7CF6
:10042800007DFE7BFE7A0079981202D3789E7401D3
:10043800F27896E2FF2499F8E4F2EF04FF7899F253
:100448007E007D007BFE7A00799812033F7896E45F
:0F045800F208F2789DF280057896E204F2D2ACB9
:0B046700D0D0D082D083D0F0D0E032A3
:10084200789EE26014E4F27BFF7A01792F1206E1CE
:0A0852007BFE7A00799B1206E1227A
:030889000200006A
:1007C4007895E2B431157432F212085C7F0A7E0027
:1007D40012000312082612084280FB78957431F245
:0207E40080DEB5
:10047E000207C4E493A3F8E493A34003F68001F2C9
:10048E0008DFF48029E493A3F85407240CC8C3337F
:10049E00C4540F4420C8834004F456800146F6DF4E
:1004AE00E4800B0102040810204080900807E47ECF
:1004BE00019360BCA3FF543F30E509541FFEE49343
:1004CE00A360010ECF54C025E060A840B8E493A30A
:1004DE00FAE493A3F8E493A3C8C582C8CAC583CA35
:1004EE00F0A3C8C582C8CAC583CADFE9DEE780BEED
:0108250000D2
:10020300E709F608DFFA8046E709F208DFFA803EDD
:1002130088828C83E709F0A3DFFA8032E309F608CA
:10022300DFFA8078E309F208DFFA807088828C8332
:10023300E309F0A3DFFA806489828A83E0A3F608E6
:10024300DFFA805889828A83E0A3F208DFFA804CC0
:1002530080D280FA80C680D4806980F28033801097
:1002630080A680EA809A80A880DA80E280CA803300
:1002730089828A83ECFAE493A3C8C582C8CCC58378
:10028300CCF0A3C8C582C8CCC583CCDFE9DEE78048
:100293000D89828A83E493A3F608DFF9ECFAA9F0C7
:1002A300EDFB2289828A83ECFAE0A3C8C582C8CC1D
:1002B300C583CCF0A3C8C582C8CCC583CCDFEADE36
:1002C300E880DB89828A83E493A3F208DFF980CC98
:1002D30088F0EF60010E4E60C388F0ED2402B40491
:1002E3000050B9F582EB2402B4040050AF23234538
:0602F30082239002537308
:1002F900BB010689828A83E0225002E722BBFE0203
:09030900E32289828A83E4932235
:10031200BB010CE58229F582E5833AF583E02250A0
:1003220006E92582F8E622BBFE06E92582F8E222EA
:0D033200E58229F582E5833AF583E4932204
:10033F00EF4E6012EF60010EEDBB010B89828A83D5
:10034F00F0A3DFFCDEFA2289F05007F709DFFCA9E2
:0C035F00F022BBFEFCF309DFFCA9F02239
:00000001FF
